{
  "_format": "hh-sol-artifact-1",
  "contractName": "PensionRegistry",
  "sourceName": "contracts/PensionRegistry.sol",
  "abi": [
    {
      "inputs": [
        {
          "internalType": "address",
          "name": "documentsAddress",
          "type": "address"
        }
      ],
      "stateMutability": "nonpayable",
      "type": "constructor"
    },
    {
      "anonymous": false,
      "inputs": [
        {
          "indexed": true,
          "internalType": "address",
          "name": "pensioner",
          "type": "address"
        },
        {
          "indexed": true,
          "internalType": "address",
          "name": "admin",
          "type": "address"
        },
        {
          "indexed": false,
          "internalType": "uint256",
          "name": "timestamp",
          "type": "uint256"
        }
      ],
      "name": "AccountClosed",
      "type": "event"
    },
    {
      "anonymous": false,
      "inputs": [
        {
          "indexed": true,
          "internalType": "address",
          "name": "pensioner",
          "type": "address"
        },
        {
          "indexed": false,
          "internalType": "string",
          "name": "reason",
          "type": "string"
        },
        {
          "indexed": false,
          "internalType": "uint256",
          "name": "timestamp",
          "type": "uint256"
        }
      ],
      "name": "AccountClosureRequested",
      "type": "event"
    },
    {
      "anonymous": false,
      "inputs": [
        {
          "indexed": true,
          "internalType": "address",
          "name": "oldAdmin",
          "type": "address"
        },
        {
          "indexed": true,
          "internalType": "address",
          "name": "newAdmin",
          "type": "address"
        }
      ],
      "name": "AdminTransferred",
      "type": "event"
    },
    {
      "anonymous": false,
      "inputs": [
        {
          "indexed": true,
          "internalType": "address",
          "name": "pensioner",
          "type": "address"
        },
        {
          "indexed": true,
          "internalType": "address",
          "name": "nominee",
          "type": "address"
        },
        {
          "indexed": false,
          "internalType": "string",
          "name": "reason",
          "type": "string"
        },
        {
          "indexed": false,
          "internalType": "uint256",
          "name": "timestamp",
          "type": "uint256"
        }
      ],
      "name": "DeathReportRejected",
      "type": "event"
    },
    {
      "anonymous": false,
      "inputs": [
        {
          "indexed": true,
          "internalType": "address",
          "name": "pensioner",
          "type": "address"
        },
        {
          "indexed": true,
          "internalType": "address",
          "name": "nominee",
          "type": "address"
        },
        {
          "indexed": false,
          "internalType": "uint256",
          "name": "timestamp",
          "type": "uint256"
        }
      ],
      "name": "DeathReportVerified",
      "type": "event"
    },
    {
      "anonymous": false,
      "inputs": [
        {
          "indexed": true,
          "internalType": "address",
          "name": "pensioner",
          "type": "address"
        },
        {
          "indexed": true,
          "internalType": "address",
          "name": "nominee",
          "type": "address"
        },
        {
          "indexed": false,
          "internalType": "string",
          "name": "deathCertificateCID",
          "type": "string"
        },
        {
          "indexed": false,
          "internalType": "uint256",
          "name": "timestamp",
          "type": "uint256"
        }
      ],
      "name": "DeathReportedByNominee",
      "type": "event"
    },
    {
      "anonymous": false,
      "inputs": [
        {
          "indexed": true,
          "internalType": "address",
          "name": "documentsAddress",
          "type": "address"
        }
      ],
      "name": "DocumentsContractUpdated",
      "type": "event"
    },
    {
      "anonymous": false,
      "inputs": [
        {
          "indexed": true,
          "internalType": "address",
          "name": "pensioner",
          "type": "address"
        },
        {
          "indexed": false,
          "internalType": "uint256",
          "name": "verifiedBasicSalaryBDT",
          "type": "uint256"
        },
        {
          "indexed": false,
          "internalType": "uint256",
          "name": "verifiedServiceYears",
          "type": "uint256"
        },
        {
          "indexed": false,
          "internalType": "string",
          "name": "verifiedEmployeeId",
          "type": "string"
        },
        {
          "indexed": false,
          "internalType": "uint256",
          "name": "timestamp",
          "type": "uint256"
        }
      ],
      "name": "GPSDataVerified",
      "type": "event"
    },
    {
      "anonymous": false,
      "inputs": [
        {
          "indexed": true,
          "internalType": "address",
          "name": "pensioner",
          "type": "address"
        },
        {
          "indexed": true,
          "internalType": "address",
          "name": "nominee",
          "type": "address"
        },
        {
          "indexed": false,
          "internalType": "string",
          "name": "nomineeNidCID",
          "type": "string"
        },
        {
          "indexed": false,
          "internalType": "string",
          "name": "relationshipCID",
          "type": "string"
        },
        {
          "indexed": false,
          "internalType": "uint256",
          "name": "timestamp",
          "type": "uint256"
        }
      ],
      "name": "NomineeClaimApplied",
      "type": "event"
    },
    {
      "anonymous": false,
      "inputs": [
        {
          "indexed": true,
          "internalType": "address",
          "name": "pensioner",
          "type": "address"
        },
        {
          "indexed": true,
          "internalType": "address",
          "name": "nominee",
          "type": "address"
        },
        {
          "indexed": false,
          "internalType": "uint256",
          "name": "timestamp",
          "type": "uint256"
        }
      ],
      "name": "NomineeClaimApproved",
      "type": "event"
    },
    {
      "anonymous": false,
      "inputs": [
        {
          "indexed": true,
          "internalType": "address",
          "name": "pensioner",
          "type": "address"
        },
        {
          "indexed": true,
          "internalType": "address",
          "name": "nominee",
          "type": "address"
        },
        {
          "indexed": false,
          "internalType": "string",
          "name": "reason",
          "type": "string"
        },
        {
          "indexed": false,
          "internalType": "uint256",
          "name": "timestamp",
          "type": "uint256"
        }
      ],
      "name": "NomineeClaimRejected",
      "type": "event"
    },
    {
      "anonymous": false,
      "inputs": [
        {
          "indexed": false,
          "internalType": "enum PensionRegistry.SchemeType",
          "name": "scheme",
          "type": "uint8"
        },
        {
          "indexed": false,
          "internalType": "uint256",
          "name": "minMonths",
          "type": "uint256"
        },
        {
          "indexed": false,
          "internalType": "uint256",
          "name": "timestamp",
          "type": "uint256"
        }
      ],
      "name": "PRSSMinMonthsUpdated",
      "type": "event"
    },
    {
      "anonymous": false,
      "inputs": [
        {
          "indexed": true,
          "internalType": "address",
          "name": "user",
          "type": "address"
        },
        {
          "indexed": false,
          "internalType": "uint256",
          "name": "reviewedAt",
          "type": "uint256"
        }
      ],
      "name": "PensionerApproved",
      "type": "event"
    },
    {
      "anonymous": false,
      "inputs": [
        {
          "indexed": true,
          "internalType": "address",
          "name": "user",
          "type": "address"
        },
        {
          "indexed": false,
          "internalType": "enum PensionRegistry.PensionProgram",
          "name": "program",
          "type": "uint8"
        },
        {
          "indexed": false,
          "internalType": "enum PensionRegistry.SchemeType",
          "name": "scheme",
          "type": "uint8"
        },
        {
          "indexed": false,
          "internalType": "uint256",
          "name": "monthlyContribution",
          "type": "uint256"
        },
        {
          "indexed": false,
          "internalType": "uint256",
          "name": "basicSalaryBDT",
          "type": "uint256"
        },
        {
          "indexed": false,
          "internalType": "uint256",
          "name": "serviceYears",
          "type": "uint256"
        },
        {
          "indexed": false,
          "internalType": "string",
          "name": "employeeId",
          "type": "string"
        },
        {
          "indexed": false,
          "internalType": "uint256",
          "name": "dateOfBirth",
          "type": "uint256"
        },
        {
          "indexed": false,
          "internalType": "uint256",
          "name": "appliedAt",
          "type": "uint256"
        }
      ],
      "name": "PensionerRegistered",
      "type": "event"
    },
    {
      "anonymous": false,
      "inputs": [
        {
          "indexed": true,
          "internalType": "address",
          "name": "user",
          "type": "address"
        },
        {
          "indexed": false,
          "internalType": "string",
          "name": "reason",
          "type": "string"
        },
        {
          "indexed": false,
          "internalType": "uint256",
          "name": "reviewedAt",
          "type": "uint256"
        }
      ],
      "name": "PensionerRejected",
      "type": "event"
    },
    {
      "inputs": [],
      "name": "GPS_MAX_SERVICE_YEARS",
      "outputs": [
        {
          "internalType": "uint256",
          "name": "",
          "type": "uint256"
        }
      ],
      "stateMutability": "view",
      "type": "function"
    },
    {
      "inputs": [],
      "name": "GPS_MIN_SERVICE_YEARS",
      "outputs": [
        {
          "internalType": "uint256",
          "name": "",
          "type": "uint256"
        }
      ],
      "stateMutability": "view",
      "type": "function"
    },
    {
      "inputs": [],
      "name": "admin",
      "outputs": [
        {
          "internalType": "address",
          "name": "",
          "type": "address"
        }
      ],
      "stateMutability": "view",
      "type": "function"
    },
    {
      "inputs": [
        {
          "internalType": "string",
          "name": "nomineeNidCID",
          "type": "string"
        },
        {
          "internalType": "string",
          "name": "relationshipCID",
          "type": "string"
        }
      ],
      "name": "applyNomineeClaim",
      "outputs": [],
      "stateMutability": "nonpayable",
      "type": "function"
    },
    {
      "inputs": [
        {
          "internalType": "address",
          "name": "pensioner",
          "type": "address"
        }
      ],
      "name": "approveNomineeClaim",
      "outputs": [],
      "stateMutability": "nonpayable",
      "type": "function"
    },
    {
      "inputs": [
        {
          "internalType": "address",
          "name": "_user",
          "type": "address"
        }
      ],
      "name": "approvePensioner",
      "outputs": [],
      "stateMutability": "nonpayable",
      "type": "function"
    },
    {
      "inputs": [
        {
          "internalType": "address",
          "name": "pensioner",
          "type": "address"
        }
      ],
      "name": "closeAccount",
      "outputs": [],
      "stateMutability": "nonpayable",
      "type": "function"
    },
    {
      "inputs": [],
      "name": "documents",
      "outputs": [
        {
          "internalType": "contract IPensionDocuments",
          "name": "",
          "type": "address"
        }
      ],
      "stateMutability": "view",
      "type": "function"
    },
    {
      "inputs": [
        {
          "internalType": "address",
          "name": "user",
          "type": "address"
        }
      ],
      "name": "getAccountStatus",
      "outputs": [
        {
          "internalType": "uint8",
          "name": "",
          "type": "uint8"
        }
      ],
      "stateMutability": "view",
      "type": "function"
    },
    {
      "inputs": [],
      "name": "getAllApplicants",
      "outputs": [
        {
          "internalType": "address[]",
          "name": "",
          "type": "address[]"
        }
      ],
      "stateMutability": "view",
      "type": "function"
    },
    {
      "inputs": [
        {
          "internalType": "uint256",
          "name": "index",
          "type": "uint256"
        }
      ],
      "name": "getApplicantAt",
      "outputs": [
        {
          "internalType": "address",
          "name": "",
          "type": "address"
        }
      ],
      "stateMutability": "view",
      "type": "function"
    },
    {
      "inputs": [],
      "name": "getApplicants",
      "outputs": [
        {
          "internalType": "address[]",
          "name": "",
          "type": "address[]"
        }
      ],
      "stateMutability": "view",
      "type": "function"
    },
    {
      "inputs": [],
      "name": "getApplicantsCount",
      "outputs": [
        {
          "internalType": "uint256",
          "name": "",
          "type": "uint256"
        }
      ],
      "stateMutability": "view",
      "type": "function"
    },
    {
      "inputs": [],
      "name": "getDeathReportedApplicants",
      "outputs": [
        {
          "internalType": "address[]",
          "name": "",
          "type": "address[]"
        }
      ],
      "stateMutability": "view",
      "type": "function"
    },
    {
      "inputs": [],
      "name": "getDeceasedApplicants",
      "outputs": [
        {
          "internalType": "address[]",
          "name": "",
          "type": "address[]"
        }
      ],
      "stateMutability": "view",
      "type": "function"
    },
    {
      "inputs": [],
      "name": "getMyPensioner",
      "outputs": [
        {
          "components": [
            {
              "internalType": "address",
              "name": "wallet",
              "type": "address"
            },
            {
              "internalType": "enum PensionRegistry.PensionProgram",
              "name": "program",
              "type": "uint8"
            },
            {
              "internalType": "enum PensionRegistry.SchemeType",
              "name": "scheme",
              "type": "uint8"
            },
            {
              "internalType": "uint256",
              "name": "monthlyContribution",
              "type": "uint256"
            },
            {
              "internalType": "uint256",
              "name": "basicSalaryBDT",
              "type": "uint256"
            },
            {
              "internalType": "uint256",
              "name": "serviceYears",
              "type": "uint256"
            },
            {
              "internalType": "string",
              "name": "employeeId",
              "type": "string"
            },
            {
              "internalType": "string",
              "name": "designation",
              "type": "string"
            },
            {
              "internalType": "bool",
              "name": "gpsVerified",
              "type": "bool"
            },
            {
              "internalType": "uint256",
              "name": "verifiedBasicSalaryBDT",
              "type": "uint256"
            },
            {
              "internalType": "uint256",
              "name": "verifiedServiceYears",
              "type": "uint256"
            },
            {
              "internalType": "string",
              "name": "verifiedEmployeeId",
              "type": "string"
            },
            {
              "internalType": "uint256",
              "name": "dateOfBirth",
              "type": "uint256"
            },
            {
              "internalType": "enum PensionRegistry.ApplicationStatus",
              "name": "status",
              "type": "uint8"
            },
            {
              "internalType": "uint256",
              "name": "appliedAt",
              "type": "uint256"
            },
            {
              "internalType": "uint256",
              "name": "reviewedAt",
              "type": "uint256"
            },
            {
              "internalType": "string",
              "name": "rejectionReason",
              "type": "string"
            },
            {
              "internalType": "address",
              "name": "nomineeWallet",
              "type": "address"
            },
            {
              "internalType": "string",
              "name": "nomineeName",
              "type": "string"
            },
            {
              "internalType": "string",
              "name": "nomineeRelation",
              "type": "string"
            },
            {
              "internalType": "bool",
              "name": "isDeceased",
              "type": "bool"
            },
            {
              "internalType": "uint256",
              "name": "deceasedAt",
              "type": "uint256"
            },
            {
              "internalType": "string",
              "name": "deathProofCID",
              "type": "string"
            },
            {
              "internalType": "enum PensionRegistry.DeathReportStatus",
              "name": "deathReportStatus",
              "type": "uint8"
            },
            {
              "internalType": "uint256",
              "name": "deathReportedAt",
              "type": "uint256"
            },
            {
              "internalType": "uint256",
              "name": "deathReviewedAt",
              "type": "uint256"
            },
            {
              "internalType": "string",
              "name": "deathReportProofCID",
              "type": "string"
            },
            {
              "internalType": "string",
              "name": "deathReportRejectReason",
              "type": "string"
            },
            {
              "internalType": "enum PensionRegistry.NomineeClaimStatus",
              "name": "nomineeClaimStatus",
              "type": "uint8"
            },
            {
              "internalType": "uint256",
              "name": "nomineeAppliedAt",
              "type": "uint256"
            },
            {
              "internalType": "uint256",
              "name": "nomineeReviewedAt",
              "type": "uint256"
            },
            {
              "internalType": "string",
              "name": "nomineeNidProofCID",
              "type": "string"
            },
            {
              "internalType": "string",
              "name": "relationshipProofCID",
              "type": "string"
            },
            {
              "internalType": "string",
              "name": "nomineeRejectReason",
              "type": "string"
            },
            {
              "internalType": "enum PensionRegistry.AccountStatus",
              "name": "accountStatus",
              "type": "uint8"
            },
            {
              "internalType": "uint256",
              "name": "closureRequestedAt",
              "type": "uint256"
            },
            {
              "internalType": "uint256",
              "name": "closedAt",
              "type": "uint256"
            },
            {
              "internalType": "string",
              "name": "closureReason",
              "type": "string"
            }
          ],
          "internalType": "struct PensionRegistry.Pensioner",
          "name": "",
          "type": "tuple"
        }
      ],
      "stateMutability": "view",
      "type": "function"
    },
    {
      "inputs": [
        {
          "internalType": "address",
          "name": "_pensioner",
          "type": "address"
        }
      ],
      "name": "getNominee",
      "outputs": [
        {
          "internalType": "address",
          "name": "",
          "type": "address"
        }
      ],
      "stateMutability": "view",
      "type": "function"
    },
    {
      "inputs": [],
      "name": "getPendingApplicants",
      "outputs": [
        {
          "internalType": "address[]",
          "name": "",
          "type": "address[]"
        }
      ],
      "stateMutability": "view",
      "type": "function"
    },
    {
      "inputs": [
        {
          "internalType": "address",
          "name": "_user",
          "type": "address"
        }
      ],
      "name": "getPensioner",
      "outputs": [
        {
          "components": [
            {
              "internalType": "address",
              "name": "wallet",
              "type": "address"
            },
            {
              "internalType": "enum PensionRegistry.PensionProgram",
              "name": "program",
              "type": "uint8"
            },
            {
              "internalType": "enum PensionRegistry.SchemeType",
              "name": "scheme",
              "type": "uint8"
            },
            {
              "internalType": "uint256",
              "name": "monthlyContribution",
              "type": "uint256"
            },
            {
              "internalType": "uint256",
              "name": "basicSalaryBDT",
              "type": "uint256"
            },
            {
              "internalType": "uint256",
              "name": "serviceYears",
              "type": "uint256"
            },
            {
              "internalType": "string",
              "name": "employeeId",
              "type": "string"
            },
            {
              "internalType": "string",
              "name": "designation",
              "type": "string"
            },
            {
              "internalType": "bool",
              "name": "gpsVerified",
              "type": "bool"
            },
            {
              "internalType": "uint256",
              "name": "verifiedBasicSalaryBDT",
              "type": "uint256"
            },
            {
              "internalType": "uint256",
              "name": "verifiedServiceYears",
              "type": "uint256"
            },
            {
              "internalType": "string",
              "name": "verifiedEmployeeId",
              "type": "string"
            },
            {
              "internalType": "uint256",
              "name": "dateOfBirth",
              "type": "uint256"
            },
            {
              "internalType": "enum PensionRegistry.ApplicationStatus",
              "name": "status",
              "type": "uint8"
            },
            {
              "internalType": "uint256",
              "name": "appliedAt",
              "type": "uint256"
            },
            {
              "internalType": "uint256",
              "name": "reviewedAt",
              "type": "uint256"
            },
            {
              "internalType": "string",
              "name": "rejectionReason",
              "type": "string"
            },
            {
              "internalType": "address",
              "name": "nomineeWallet",
              "type": "address"
            },
            {
              "internalType": "string",
              "name": "nomineeName",
              "type": "string"
            },
            {
              "internalType": "string",
              "name": "nomineeRelation",
              "type": "string"
            },
            {
              "internalType": "bool",
              "name": "isDeceased",
              "type": "bool"
            },
            {
              "internalType": "uint256",
              "name": "deceasedAt",
              "type": "uint256"
            },
            {
              "internalType": "string",
              "name": "deathProofCID",
              "type": "string"
            },
            {
              "internalType": "enum PensionRegistry.DeathReportStatus",
              "name": "deathReportStatus",
              "type": "uint8"
            },
            {
              "internalType": "uint256",
              "name": "deathReportedAt",
              "type": "uint256"
            },
            {
              "internalType": "uint256",
              "name": "deathReviewedAt",
              "type": "uint256"
            },
            {
              "internalType": "string",
              "name": "deathReportProofCID",
              "type": "string"
            },
            {
              "internalType": "string",
              "name": "deathReportRejectReason",
              "type": "string"
            },
            {
              "internalType": "enum PensionRegistry.NomineeClaimStatus",
              "name": "nomineeClaimStatus",
              "type": "uint8"
            },
            {
              "internalType": "uint256",
              "name": "nomineeAppliedAt",
              "type": "uint256"
            },
            {
              "internalType": "uint256",
              "name": "nomineeReviewedAt",
              "type": "uint256"
            },
            {
              "internalType": "string",
              "name": "nomineeNidProofCID",
              "type": "string"
            },
            {
              "internalType": "string",
              "name": "relationshipProofCID",
              "type": "string"
            },
            {
              "internalType": "string",
              "name": "nomineeRejectReason",
              "type": "string"
            },
            {
              "internalType": "enum PensionRegistry.AccountStatus",
              "name": "accountStatus",
              "type": "uint8"
            },
            {
              "internalType": "uint256",
              "name": "closureRequestedAt",
              "type": "uint256"
            },
            {
              "internalType": "uint256",
              "name": "closedAt",
              "type": "uint256"
            },
            {
              "internalType": "string",
              "name": "closureReason",
              "type": "string"
            }
          ],
          "internalType": "struct PensionRegistry.Pensioner",
          "name": "",
          "type": "tuple"
        }
      ],
      "stateMutability": "view",
      "type": "function"
    },
    {
      "inputs": [
        {
          "internalType": "address",
          "name": "user",
          "type": "address"
        }
      ],
      "name": "getProgram",
      "outputs": [
        {
          "internalType": "uint8",
          "name": "",
          "type": "uint8"
        }
      ],
      "stateMutability": "view",
      "type": "function"
    },
    {
      "inputs": [
        {
          "internalType": "address",
          "name": "_user",
          "type": "address"
        }
      ],
      "name": "getStatus",
      "outputs": [
        {
          "internalType": "enum PensionRegistry.ApplicationStatus",
          "name": "",
          "type": "uint8"
        }
      ],
      "stateMutability": "view",
      "type": "function"
    },
    {
      "inputs": [
        {
          "internalType": "address",
          "name": "_user",
          "type": "address"
        }
      ],
      "name": "isAdmin",
      "outputs": [
        {
          "internalType": "bool",
          "name": "",
          "type": "bool"
        }
      ],
      "stateMutability": "view",
      "type": "function"
    },
    {
      "inputs": [
        {
          "internalType": "address",
          "name": "_user",
          "type": "address"
        }
      ],
      "name": "isDeceased",
      "outputs": [
        {
          "internalType": "bool",
          "name": "",
          "type": "bool"
        }
      ],
      "stateMutability": "view",
      "type": "function"
    },
    {
      "inputs": [
        {
          "internalType": "address",
          "name": "_nominee",
          "type": "address"
        }
      ],
      "name": "isNominee",
      "outputs": [
        {
          "internalType": "bool",
          "name": "",
          "type": "bool"
        }
      ],
      "stateMutability": "view",
      "type": "function"
    },
    {
      "inputs": [
        {
          "internalType": "address",
          "name": "_pensioner",
          "type": "address"
        }
      ],
      "name": "isNomineeApproved",
      "outputs": [
        {
          "internalType": "bool",
          "name": "",
          "type": "bool"
        }
      ],
      "stateMutability": "view",
      "type": "function"
    },
    {
      "inputs": [
        {
          "internalType": "address",
          "name": "_user",
          "type": "address"
        }
      ],
      "name": "isRegistered",
      "outputs": [
        {
          "internalType": "bool",
          "name": "",
          "type": "bool"
        }
      ],
      "stateMutability": "view",
      "type": "function"
    },
    {
      "inputs": [
        {
          "internalType": "address",
          "name": "",
          "type": "address"
        }
      ],
      "name": "nomineeToPensioner",
      "outputs": [
        {
          "internalType": "address",
          "name": "",
          "type": "address"
        }
      ],
      "stateMutability": "view",
      "type": "function"
    },
    {
      "inputs": [
        {
          "internalType": "enum PensionRegistry.SchemeType",
          "name": "",
          "type": "uint8"
        }
      ],
      "name": "prssMinMonths",
      "outputs": [
        {
          "internalType": "uint256",
          "name": "",
          "type": "uint256"
        }
      ],
      "stateMutability": "view",
      "type": "function"
    },
    {
      "inputs": [
        {
          "internalType": "enum PensionRegistry.PensionProgram",
          "name": "_program",
          "type": "uint8"
        },
        {
          "internalType": "enum PensionRegistry.SchemeType",
          "name": "_scheme",
          "type": "uint8"
        },
        {
          "internalType": "uint256",
          "name": "_monthlyContribution",
          "type": "uint256"
        },
        {
          "internalType": "uint256",
          "name": "_basicSalaryBDT",
          "type": "uint256"
        },
        {
          "internalType": "uint256",
          "name": "_serviceYears",
          "type": "uint256"
        },
        {
          "internalType": "string",
          "name": "_employeeId",
          "type": "string"
        },
        {
          "internalType": "string",
          "name": "_designation",
          "type": "string"
        },
        {
          "internalType": "uint256",
          "name": "_dateOfBirth",
          "type": "uint256"
        },
        {
          "internalType": "address",
          "name": "_nomineeWallet",
          "type": "address"
        },
        {
          "internalType": "string",
          "name": "_nomineeName",
          "type": "string"
        },
        {
          "internalType": "string",
          "name": "_nomineeRelation",
          "type": "string"
        }
      ],
      "name": "registerPensioner",
      "outputs": [],
      "stateMutability": "nonpayable",
      "type": "function"
    },
    {
      "inputs": [
        {
          "internalType": "address",
          "name": "pensioner",
          "type": "address"
        },
        {
          "internalType": "string",
          "name": "reason",
          "type": "string"
        }
      ],
      "name": "rejectDeathReport",
      "outputs": [],
      "stateMutability": "nonpayable",
      "type": "function"
    },
    {
      "inputs": [
        {
          "internalType": "address",
          "name": "pensioner",
          "type": "address"
        },
        {
          "internalType": "string",
          "name": "reason",
          "type": "string"
        }
      ],
      "name": "rejectNomineeClaim",
      "outputs": [],
      "stateMutability": "nonpayable",
      "type": "function"
    },
    {
      "inputs": [
        {
          "internalType": "address",
          "name": "_user",
          "type": "address"
        },
        {
          "internalType": "string",
          "name": "_reason",
          "type": "string"
        }
      ],
      "name": "rejectPensioner",
      "outputs": [],
      "stateMutability": "nonpayable",
      "type": "function"
    },
    {
      "inputs": [
        {
          "internalType": "string",
          "name": "deathCertificateCID",
          "type": "string"
        }
      ],
      "name": "reportDeathByNominee",
      "outputs": [],
      "stateMutability": "nonpayable",
      "type": "function"
    },
    {
      "inputs": [
        {
          "internalType": "string",
          "name": "reason",
          "type": "string"
        }
      ],
      "name": "requestAccountClosure",
      "outputs": [],
      "stateMutability": "nonpayable",
      "type": "function"
    },
    {
      "inputs": [
        {
          "internalType": "address",
          "name": "_documents",
          "type": "address"
        }
      ],
      "name": "setDocuments",
      "outputs": [],
      "stateMutability": "nonpayable",
      "type": "function"
    },
    {
      "inputs": [
        {
          "internalType": "enum PensionRegistry.SchemeType",
          "name": "scheme",
          "type": "uint8"
        },
        {
          "internalType": "uint256",
          "name": "minMonths",
          "type": "uint256"
        }
      ],
      "name": "setPRSSMinMonths",
      "outputs": [],
      "stateMutability": "nonpayable",
      "type": "function"
    },
    {
      "inputs": [
        {
          "internalType": "address",
          "name": "newAdmin",
          "type": "address"
        }
      ],
      "name": "transferAdmin",
      "outputs": [],
      "stateMutability": "nonpayable",
      "type": "function"
    },
    {
      "inputs": [
        {
          "internalType": "address",
          "name": "pensioner",
          "type": "address"
        },
        {
          "internalType": "string",
          "name": "proofCID",
          "type": "string"
        }
      ],
      "name": "verifyDeathReport",
      "outputs": [],
      "stateMutability": "nonpayable",
      "type": "function"
    },
    {
      "inputs": [
        {
          "internalType": "address",
          "name": "pensioner",
          "type": "address"
        }
      ],
      "name": "verifyDeathReport",
      "outputs": [],
      "stateMutability": "nonpayable",
      "type": "function"
    },
    {
      "inputs": [
        {
          "internalType": "address",
          "name": "pensioner",
          "type": "address"
        },
        {
          "internalType": "uint256",
          "name": "verifiedBasicSalaryBDT",
          "type": "uint256"
        },
        {
          "internalType": "uint256",
          "name": "verifiedServiceYears",
          "type": "uint256"
        },
        {
          "internalType": "string",
          "name": "verifiedEmployeeId",
          "type": "string"
        }
      ],
      "name": "verifyGPSData",
      "outputs": [],
      "stateMutability": "nonpayable",
      "type": "function"
    }
  ],
  "bytecode": "0x60803461012c57601f6151d438819003918201601f19168301916001600160401b038311848410176101315780849260209460405283398101031261012c57516001600160a01b0381169081900361012c57600080546001600160a01b0319163317905580610112575b6006602052600c7f54cdd369e4e8a8515e52ca72ec816c2101831ad1f18bf44102ed171459c9b4f85560187f3e5fec24aa4dc4e5aee2e025e51e1392c72a2500577559fae9665c6d52bd6a315560247f8819ef417987f8ae7a81f42cdfb18815282fe989326fbff903d13cf0e03ace29556003600052603c7f75f96ab15d697e93042dc45b5c896c4b27e89bb6eaf39475c5c371cb2513f7d25560405161508c90816101488239f35b600580546001600160a01b03191691909117905538610069565b600080fd5b634e487b7160e01b600052604160045260246000fdfe608080604052600436101561001357600080fd5b60003560e01c908163058616e7146140045750806305ef09b914613fbf57806306ad7d2714613cf85780630e0ed1c114613cdc578063113032591461269d57806314fbc8a11461251357806324d7806c146124de5780632974e11d146122e257806330ccebb514612299578063388d5399146122295780633a1806b414612270578063424fea231461222e578063455772d2146122295780634c336c2f14611e1857806354e8854a14611c40578063598e4d8e146118d45780636d9515f21461169857806375829def146115a55780637d2554521461143e57806389f3b96a146114005780638c398a37146113455780639093306a1461132957806395d5ac0d146111235780639cc10e92146110d7578063a0fbae881461109a578063a2064f4514611056578063a25699f714610f75578063a6f9034a14610cae578063ae15e90114610b99578063b7b427e114610b1d578063c3576cb314610a24578063c3c5a547146109d9578063d4fb97d6146107ea578063dd336b9414610680578063ece15a5a14610569578063f5eebc4e146102c5578063f851a4401461029c578063fa863c441461027e578063fac82a4c1461023c5763fd4fa05a146101d757600080fd5b34610237576020366003190112610237576001600160a01b036101f861404b565b16600052600160205260ff60206040600020015416600381101561022157602090604051908152f35b634e487b7160e01b600052602160045260246000fd5b600080fd5b34610237576020366003190112610237576001600160a01b0361025d61404b565b166000526001602052602060ff601260406000200154166040519015158152f35b34610237576000366003190112610237576020600254604051908152f35b34610237576000366003190112610237576000546040516001600160a01b039091168152602090f35b34610237576020366003190112610237576102de61404b565b6102e6614bbd565b5060018060a01b03166000526001602052610565604060002061055360236040519261031184614619565b80546001600160a01b038116855260ff9061033560a082901c8316602088016147cd565b60a81c16610342816140d1565b60408501526001810154606085015260028101546080850152600381015460a085015261037160048201614ce4565b60c085015261038260058201614ce4565b60e085015260ff6006820154161515610100850152600781015461012085015260088101546101408501526103b960098201614ce4565b610160850152600a81015461018085015260ff600b820154166103db816140d1565b6101a0850152600c8101546101c0850152600d8101546101e0850152610403600e8201614ce4565b610200850152600f8101546001600160a01b031661022085015261042960108201614ce4565b61024085015261043b60118201614ce4565b61026085015260ff601282015416151561028085015260138101546102a085015261046860148201614ce4565b6102c085015260ff60158201541661047f816140d1565b6102e0850152601681015461030085015260178101546103208501526104a760188201614ce4565b6103408501526104b960198201614ce4565b61036085015260ff601a820154166104d0816140d1565b610380850152601b8101546103a0850152601c8101546103c08501526104f8601d8201614ce4565b6103e085015261050a601e8201614ce4565b61040085015261051c601f8201614ce4565b61042085015261053760ff602083015416610440860161481f565b6021810154610460850152602281015461048085015201614ce4565b6104a0820152604051918291826141f8565b0390f35b34610237576000366003190112610237576002546000805b828110610627575061059290614dc2565b906000805b8281106105ac576040518061056586826140db565b6105b58161482b565b60018060a01b0391549060031b1c166000526001602052600160ff600b60406000200154166105e3816140d1565b146105f1575b600101610597565b9061061f6001916106018461482b565b848060a01b0391549060031b1c166106198288614df4565b52614d86565b9190506105e9565b6106308161482b565b60018060a01b0391549060031b1c166000526001602052600160ff600b604060002001541661065e816140d1565b1461066c575b600101610581565b90610678600191614d86565b919050610664565b346102375760203660031901126102375761069961404b565b6106ae60018060a01b036000541633146144c8565b6001600160a01b03166106c281151561487d565b600081815260016020526040902080546106e6906001600160a01b031683146148fb565b6020810160ff8154166003811015610221576001036107b55761071060ff60128401541615614b79565b600f8201546001600160a01b031680151580610795575b61076d575b50600260ff19825416179055602242910155604051904282527fc886dfde76b7d9922b53c3fba3bb78a760b51bc28f26a68e292616fa7b53514160203393a3005b600052600460205260406000206bffffffffffffffffffffffff60a01b81541690558361072c565b506000818152600460205260409020546001600160a01b03168414610727565b60405162461bcd60e51b815260206004820152600d60248201526c139bdd081c995c5d595cdd1959609a1b6044820152606490fd5b34610237576107f83661408e565b9161080e60018060a01b036000541633146144c8565b6001600160a01b031690610823821515614509565b81600052600160205261084c600160ff600b6040600020015416610846816140d1565b14614544565b6108578315156148bd565b81600052600160205260ff602060406000200154166003811015610221576002610882911415614590565b6000828152600160205260409020600b8101805460ff1916600317905542600d820155600e01926001600160401b0381116109c3576108cb816108c58654614686565b86614701565b600093601f82116001146109415761091d82807fd29684f769c867f6ba02e892d09db30b82dbe136f45bfb92d197d2b9c45650ad9697600091610936575b508160011b916000199060031b1c19161790565b90555b610931604051928392429184614976565b0390a2005b905085013588610909565b80855260208520601f19831695805b8781106109ab5750837fd29684f769c867f6ba02e892d09db30b82dbe136f45bfb92d197d2b9c45650ad969710610991575b5050600182811b019055610920565b840135600019600385901b60f8161c191690558580610982565b90916020600181928589013581550193019101610950565b634e487b7160e01b600052604160045260246000fd5b34610237576020366003190112610237576001600160a01b036109fa61404b565b166000526001602052602060ff600b6040600020015416610a1a816140d1565b6040519015158152f35b34610237576000366003190112610237576002546000805b828110610ac45750610a4d90614dc2565b906000805b828110610a67576040518061056586826140db565b610a708161482b565b60018060a01b0391549060031b1c166000526001602052600160ff60156040600020015416610a9e816140d1565b14610aac575b600101610a52565b90610abc6001916106018461482b565b919050610aa4565b610acd8161482b565b60018060a01b0391549060031b1c166000526001602052600160ff60156040600020015416610afb816140d1565b14610b09575b600101610a3c565b90610b15600191614d86565b919050610b01565b3461023757602036600319011261023757600435600254811015610b5f57610b4660209161482b565b905460405160039290921b1c6001600160a01b03168152f35b60405162461bcd60e51b8152602060048201526012602482015271496e646578206f7574206f662072616e676560701b6044820152606490fd5b3461023757604036600319011261023757600435600481101561023757602435610bce60018060a01b036000541633146144c8565b60068110610c745760f08111610c395781606091610c0c7f38e22052cbf6f78418aa640f147271e8f04cf93fde6b93c481d4fd1ec139332d946140d1565b8160005260066020528060406000205560405191610c29816140d1565b82526020820152426040820152a1005b60405162461bcd60e51b815260206004820152601360248201527209ad2dc40dadedce8d0e640e8dede40d0d2ced606b1b6044820152606490fd5b60405162461bcd60e51b81526020600482015260126024820152714d696e206d6f6e74687320746f6f206c6f7760701b6044820152606490fd5b3461023757608036600319011261023757610cc761404b565b602435906044356064356001600160401b03811161023757610ced903690600401614061565b939092610d0560018060a01b036000541633146144c8565b6001600160a01b031692610d1a84151561487d565b6000848152600160205260409020805460ff90610d416001600160a01b03821688146148fb565b610d56600183600b86015416610846816140d1565b60a01c16600281101561022157610f3c5760ff6020820154166003811015610221576002610d85911415614590565b8215610f0057600990610d9f610d9a8661503e565b614746565b610daa87151561478a565b60068101600160ff1982541617905583600782015584600882015501946001600160401b0381116109c357610de981610de38854614686565b88614701565b600095601f8211600114610e775790610e619291610e4082807fda374d46b1fc451cec0a6c1510b1559739fb37e9d51cf080ad4b4711cad58c36999a600091610e6c57508160011b916000199060031b1c19161790565b90555b6040519485948552602085015260806040850152608084019161485c565b4260608301520390a2005b90508501358b610909565b80875260208720601f198316885b818110610ee85750907fda374d46b1fc451cec0a6c1510b1559739fb37e9d51cf080ad4b4711cad58c36979884610e619695949310610ece575b5050600182811b019055610e43565b840135600019600385901b60f8161c191690558880610ebf565b858a013583556020998a019960019093019201610e85565b60405162461bcd60e51b8152602060048201526014602482015273496e76616c69642062617369632073616c61727960601b6044820152606490fd5b60405162461bcd60e51b81526020600482015260116024820152702737ba1023a829903832b739b4b7b732b960791b6044820152606490fd5b34610237576000366003190112610237576002546000805b8281106110095750610f9e90614dc2565b906000805b828110610fb8576040518061056586826140db565b610fc18161482b565b60018060a01b0391549060031b1c16600052600160205260ff60126040600020015416610ff1575b600101610fa3565b906110016001916106018461482b565b919050610fe9565b6110128161482b565b60018060a01b0391549060031b1c16600052600160205260ff60126040600020015416611042575b600101610f8d565b9061104e600191614d86565b91905061103a565b34610237576020366003190112610237576001600160a01b0361107761404b565b166000526004602052602060018060a01b03604060002054161515604051908152f35b34610237576000366003190112610237576110b3614bbd565b50336000526001602052610565604060002061055360236040519261031184614619565b34610237576020366003190112610237576001600160a01b036110f861404b565b166000526001602052602060ff601a6040600020015416611118816140d1565b600260405191148152f35b34610237576020366003190112610237576004356001600160401b03811161023757611153903690600401614061565b33600052600160205260406000206111753360018060a01b03835416146148fb565b61119060ff600b83015416611189816140d1565b15156148fb565b602081019060ff8254166003811015610221576112f7576023916111bb60ff60128401541615614b79565b6111c68415156148bd565b805460ff1916600117905542602182015501916001600160401b0382116109c3576111fb826111f58554614686565b85614701565b600092601f831160011461126f57906109319161125184807f7d906aefc9f0542a949443e8296451b6c24d7cdb4eca2bee2eba58149ea2340e969760009161126457508160011b916000199060031b1c19161790565b90555b6040519182913395429184614976565b905084013588610909565b80845260208420601f198416855b8181106112df57509084957f7d906aefc9f0542a949443e8296451b6c24d7cdb4eca2bee2eba58149ea2340e95610931959493106112c5575b5050600185811b019055611254565b830135600019600388901b60f8161c1916905585806112b6565b8487013583556020968701966001909301920161127d565b60405162461bcd60e51b815260206004820152600a6024820152694e6f742061637469766560b01b6044820152606490fd5b34610237576000366003190112610237576020604051600a8152f35b346102375760203660031901126102375761135e61404b565b61137360018060a01b036000541633146144c8565b6001600160a01b031680156113bb57600580546001600160a01b031916821790557fcd5ba6774ef6fc29cc8319bf8c56844f3a2c806e77870f14c2e579de99e50e35600080a2005b60405162461bcd60e51b815260206004820152601960248201527f496e76616c696420646f63756d656e74732061646472657373000000000000006044820152606490fd5b3461023757602036600319011261023757600435600481101561023757611426816140d1565b60005260066020526020604060002054604051908152f35b346102375760203660031901126102375761145761404b565b61146c60018060a01b036000541633146144c8565b6001600160a01b031661148081151561487d565b600081815260016020526040902080546114a4906001600160a01b031683146148fb565b601581018054906114c3600160ff84166114bd816140d1565b14614938565b60ff60208401541660038110156102215760026114e1911415614590565b60188301906114f08254614686565b156115605760026115269360ff191617905542601784015560128301600160ff1982541617905542601384015560148301614a9d565b600f60018060a01b0391015416907fe8c66b50d8139d3d3273d8902f004689ef47e0f56fe7b1ed8b0b499cf0dfbc836020604051428152a3005b60405162461bcd60e51b815260206004820152601a60248201527f44656174682063657274696669636174652072657175697265640000000000006044820152606490fd5b34610237576020366003190112610237576115be61404b565b600054906001600160a01b038216906115d83383146144c8565b6001600160a01b031691821561165b57818314611626576001600160a01b031916821760009081557ff8ccb027dfcd135e000e9d45e6cc2d662578a8825d4c45b5e32e0adf67e79ec69080a3005b60405162461bcd60e51b815260206004820152600d60248201526c20b63932b0b23c9030b236b4b760991b6044820152606490fd5b60405162461bcd60e51b8152602060048201526015602482015274496e76616c69642061646d696e206164647265737360581b6044820152606490fd5b34610237576020366003190112610237576116b161404b565b6116c660018060a01b036000541633146144c8565b6001600160a01b03166116da81151561487d565b600081815260016020526040902080546116fe906001600160a01b031683146148fb565b61171a600260ff600b84015416611714816140d1565b146149d5565b60ff6020820154166003811015610221576002611738911415614590565b600f810180549091906001600160a01b0316801561189b57601a820191825491611770600160ff851661176a816140d1565b14614a5b565b6005546001600160a01b03169060209061178b8315156145cd565b60246040518094819363906766e360e01b835260048301525afa90811561188f57600091611860575b501561181b576000926002601f9360ff191617905542601c820155016117e36117dd8254614686565b826146d7565b5560018060a01b03905416907f6c200962f272b3b898248e929e2480e280065fd2da0ded1622915a1ed3e3acb06020604051428152a3005b60405162461bcd60e51b815260206004820152601e60248201527f4e6f6d696e656520646f63756d656e7473206e6f7420617070726f76656400006044820152606490fd5b611882915060203d602011611888575b61187a8183614635565b810190614656565b866117b4565b503d611870565b6040513d6000823e3d90fd5b60405162461bcd60e51b8152602060048201526011602482015270139bc81b9bdb5a5b9959481dd85b1b195d607a1b6044820152606490fd5b34610237576020366003190112610237576004356001600160401b03811161023757611904903690600401614061565b9033600052600460205260018060a01b036040600020541690611928821515614993565b816000526001602052604060002060ff6020820154166003811015610221576002611954911415614590565b61196a600260ff600b84015416611714816140d1565b600f810154611983906001600160a01b03163314614a1a565b600260ff601a83015416611996816140d1565b03611c045760ff601282015416611bbf578315611b7a5760158101805460ff81166119c0816140d1565b8015908115611b66575b5015611b285760ff1916600117905542601682015560006017820155601881016001600160401b0385116109c357611a0c85611a068354614686565b83614701565b846000601f8211600114611a9757611a87937f8176cfcaa6ee8c279d89a7a15a4052aa13bc79cc89f2c5268d6cefad989732d59593611a65846000956019958791611a8c57508160011b916000199060031b1c19161790565b90555b01611a766117dd8254614686565b556040519182913396429184614976565b0390a3005b90508701358c610909565b82815260208120915086601f198116825b818110611b0d575093600093601993611a8797937f8176cfcaa6ee8c279d89a7a15a4052aa13bc79cc89f2c5268d6cefad989732d5999710611af4575b5050600189811b019055611a68565b851960f88c60031b161c19908701351690558980611ae5565b8784013585556001909401936020938401938a935001611aa8565b60405162461bcd60e51b81526020600482015260166024820152751119585d1a08185b1c9958591e481c995c1bdc9d195960521b6044820152606490fd5b60039150611b73816140d1565b14876119ca565b60405162461bcd60e51b815260206004820152601e60248201527f44656174682063657274696669636174652043494420726571756972656400006044820152606490fd5b60405162461bcd60e51b815260206004820152601760248201527f416c7265616479206d61726b65642064656365617365640000000000000000006044820152606490fd5b60405162461bcd60e51b8152602060048201526014602482015273139bdb5a5b9959481b9bdd08185c1c1c9bdd995960621b6044820152606490fd5b3461023757611c4e3661408e565b9091611c6560018060a01b036000541633146144c8565b6001600160a01b0316611c7981151561487d565b611c848215156148bd565b806000526001602052604060002092611ca78260018060a01b03865416146148fb565b601a84018054611cbf600160ff831661176a816140d1565b60ff60208701541690600382101561022157611ce060026003931415614590565b60ff191617905542601c850155601f8401936001600160401b0384116109c357611d1484611d0e8754614686565b87614701565b600094601f8511600114611d9357611d6685807feafd35b0ef4944d77bbb2493452b48ad6c0e0e7012152f95458668bb1dd9a2bc969798600091611d8857508160011b916000199060031b1c19161790565b90555b600f60018060a01b039101541693611a87604051928392429184614976565b905085013589610909565b8086526020862095601f198616815b818110611e00575090867feafd35b0ef4944d77bbb2493452b48ad6c0e0e7012152f95458668bb1dd9a2bc9697989210611de6575b5050600186811b019055611d69565b840135600019600389901b60f8161c191690558680611dd7565b85830135895560019098019760209283019201611da2565b34610237576040366003190112610237576004356001600160401b03811161023757611e48903690600401614061565b906024356001600160401b03811161023757611e68903690600401614061565b336000908152600460205260409020546001600160a01b031692611e8d841515614993565b836000526001602052604060002060ff6020820154166003811015610221576002611eb9911415614590565b611ecf600260ff600b84015416611714816140d1565b600f810154611ee8906001600160a01b03163314614a1a565b601a8101805460ff8116611efb816140d1565b8015908115612215575b50156121d057871561218b5784156121465760ff1916600117905542601b8201556000601c820155601d81016001600160401b0387116109c357611f4d87611a068354614686565b600087601f81116001146120e35780611f7b926000916120d857508160011b916000199060031b1c19161790565b90555b601e81016001600160401b0384116109c357611f9e84611a068354614686565b6000601f851160011461204757926000601f869461201f94611ffb8761202d9a7f785d4a9d8c6f8fec736a4901971c3377c8c352dfb40b7b9c2e198f9674a08e839c9a879161203c57508160011b916000199060031b1c19161790565b90555b0161200c6117dd8254614686565b556040519760608952606089019161485c565b91868303602088015261485c565b924260408201528033940390a3005b90508a01358f610909565b8181526020812090601f198616815b8181106120c05750869461201f947f785d4a9d8c6f8fec736a4901971c3377c8c352dfb40b7b9c2e198f9674a08e8399979460009461202d9a601f95106120a7575b5050600187811b019055611ffe565b851960f88a60031b161c19908a01351690558c80612098565b9192602060018192868c013581550194019201612056565b90508501358a610909565b50818152602081209088601f198116825b81811061212b575010612111575b5050600187811b019055611f7e565b84013560001960038a901b60f8161c191690558780612102565b8784013585556001909401936020938401938c9350016120f4565b60405162461bcd60e51b815260206004820152601960248201527f52656c6174696f6e7368697020434944207265717569726564000000000000006044820152606490fd5b60405162461bcd60e51b815260206004820152601860248201527f4e6f6d696e6565204e49442043494420726571756972656400000000000000006044820152606490fd5b60405162461bcd60e51b815260206004820152601760248201527f4e6f6d696e656520616c7265616479206170706c6965640000000000000000006044820152606490fd5b60039150612222816140d1565b1489611f05565b61411e565b34610237576020366003190112610237576001600160a01b0361224f61404b565b166000526004602052602060018060a01b0360406000205416604051908152f35b34610237576000366003190112610237576005546040516001600160a01b039091168152602090f35b34610237576020366003190112610237576001600160a01b036122ba61404b565b166000526001602052602060ff600b6040600020015416604051906122de816140d1565b8152f35b34610237576122f03661408e565b909161230760018060a01b036000541633146144c8565b6001600160a01b03169061231c82151561487d565b81600052600160205260406000209061233f8360018060a01b03845416146148fb565b601582018054612357600160ff83166114bd816140d1565b82156124a45760ff6020850154169060038210156102215761237d600280931415614590565b60ff191617905542601783015560128201600160ff1982541617905542601383015560148201906001600160401b0381116109c3576123c6816123c08454614686565b84614701565b6000601f82116001146124405781906123f993949596600092612435575b50508160011b916000199060031b1c19161790565b9055600f60018060a01b0391015416907fe8c66b50d8139d3d3273d8902f004689ef47e0f56fe7b1ed8b0b499cf0dfbc836020604051428152a3005b0135905086806123e4565b601f198216958382526020822091805b88811061248c57508360019596979810612472575b505050811b019055611526565b0135600019600384901b60f8161c19169055858080612465565b90926020600181928686013581550194019101612450565b60405162461bcd60e51b8152602060048201526012602482015271141c9bdbd98810d251081c995c5d5a5c995960721b6044820152606490fd5b346102375760203660031901126102375760206124f961404b565b6000546040516001600160a01b0392831691909216148152f35b34610237576125213661408e565b909161253860018060a01b036000541633146144c8565b6001600160a01b031661254c81151561487d565b6125578215156148bd565b80600052600160205260406000209261257a8260018060a01b03865416146148fb565b601584018054612592600160ff83166114bd816140d1565b60ff602087015416906003821015610221576125b360026003931415614590565b60ff191617905542601785015560198401936001600160401b0384116109c3576125e184611d0e8754614686565b600094601f851160011461263357611d6685807f948a8f26a03ddb4ae9e79b34bbd49e251c8a42243319c350292c736b9db0f384969798600091611d8857508160011b916000199060031b1c19161790565b8086526020862095601f198616815b818110612685575090867f948a8f26a03ddb4ae9e79b34bbd49e251c8a42243319c350292c736b9db0f3849697989210611de6575050600186811b019055611d69565b85830135895560019098019760209283019201612642565b3461023757610160366003190112610237576002600435101561023757600460243510156102375760a4356001600160401b038111610237576126e4903690600401614061565b9060c4356001600160401b03811161023757612704903690600401614061565b92909161010435916001600160a01b038316830361023757610124356001600160401b0381116102375761273c903690600401614061565b959094610144356001600160401b0381116102375761275f903690600401614061565b909133600052600160205260ff600b604060002001541661277f816140d1565b8015908115613cc8575b5015613c835733600052600160205260ff6020604060002001541660038110156102215760026127ba911415614590565b6127c560e435614e08565b15613c46576001600160a01b03871615613c01576001600160a01b0387163314613bb0578815613b73578115613b2e576000976004356139b75760443561396757606435156139225761281c610d9a60843561503e565b61282786151561478a565b338952600160205260408920600f01546001600160a01b031680151580613904575b6138e5575b506001600160a01b038881168a52600460205260408a20541680159081156138db575b501561389f576001600160a01b038816895260046020526040808a2080546001600160a01b031916331790555199612995956129889361290a916128c78e6128b881614619565b338152602060043591016147cd565b6128d26024356140d1565b60243560408f015260443560608f015260643560808f015260843560a08f01528d60c0612900368d8f6147d9565b91015236916147d9565b60e08c0152896101008c0152896101208c0152896101408c01526020986040516129348b82614635565b8b81526101608d015260e4356101808d015260016101a08d0152426101c08d01528a6101e08d01526040516129698b82614635565b8b81526102008d01526001600160a01b03166102208c015236916147d9565b61024089015236916147d9565b61026086015283610280860152836102a08601526040516129b68482614635565b8481526102c0860152836102e086015283610300860152836103208601526040516129e18482614635565b8481526103408601526040516129f78482614635565b84815261036086015283610380860152836103a0860152836103c0860152604051612a228482614635565b8481526103e0860152604051612a388482614635565b848152610400860152604051612a4e8482614635565b848152610420860152836104408601528361046086015283610480860152604051612a798482614635565b8481526104a08601523384526001835260408420855181546001600160a01b0319166001600160a01b03919091161781556020860151600281101561388b5781546040880151612ac8816140d1565b612ad1816140d1565b61ffff60a01b1990911660a092831b60ff60a01b161760a89190911b60ff60a81b161782556060870151600183015560808701516002830155860151600382015560c08601518051906001600160401b0382116133c757612b4282612b396004860154614686565b60048601614701565b8590601f831160011461381d57612b7092918891836133535750508160011b916000199060031b1c19161790565b60048201555b60e08601518051906001600160401b0382116133c757612ba682612b9d6005860154614686565b60058601614701565b8590601f83116001146137af57612bd492918891836133535750508160011b916000199060031b1c19161790565b60058201555b612bfa6101008701511515600683019060ff801983541691151516179055565b610120860151600782015561014086015160088201556101608601518051906001600160401b0382116133c757612c4182612c386009860154614686565b60098601614701565b8590601f831160011461374157612c6f92918891836133535750508160011b916000199060031b1c19161790565b60098201555b610180860151600a820155612c9b6101a0870151612c92816140d1565b600b830161466e565b6101c0860151600c8201556101e0860151600d8201556102008601518051906001600160401b0382116133c757612ce282612cd9600e860154614686565b600e8601614701565b8590601f83116001146136d357612d1092918891836133535750508160011b916000199060031b1c19161790565b600e8201555b610220860151600f820180546001600160a01b0319166001600160a01b03929092169190911790556102408601518051906001600160401b0382116133c757612d6f82612d666010860154614686565b60108601614701565b8590601f831160011461366557612d9d92918891836133535750508160011b916000199060031b1c19161790565b60108201555b6102608601518051906001600160401b0382116133c757612dd482612dcb6011860154614686565b60118601614701565b8590601f83116001146135f757612e0292918891836133535750508160011b916000199060031b1c19161790565b60118201555b612e286102808701511515601283019060ff801983541691151516179055565b6102a086015160138201556102c08601518051906001600160401b0382116133c757612e6482612e5b6014860154614686565b60148601614701565b8590601f831160011461358957612e9292918891836133535750508160011b916000199060031b1c19161790565b60148201555b612eb36102e0870151612eaa816140d1565b6015830161466e565b610300860151601682015561032086015160178201556103408601518051906001600160401b0382116133c757612efa82612ef16018860154614686565b60188601614701565b8590601f831160011461351b57612f2892918891836133535750508160011b916000199060031b1c19161790565b60188201555b6103608601518051906001600160401b0382116133c757612f5f82612f566019860154614686565b60198601614701565b8590601f83116001146134ad57612f8d92918891836133535750508160011b916000199060031b1c19161790565b60198201555b612fae610380870151612fa5816140d1565b601a830161466e565b6103a0860151601b8201556103c0860151601c8201556103e08601518051906001600160401b0382116133c757612ff582612fec601d860154614686565b601d8601614701565b8590601f83116001146134445761302392918891836133535750508160011b916000199060031b1c19161790565b601d8201555b6104008601518051906001600160401b0382116133c75761305a82613051601e860154614686565b601e8601614701565b8590601f83116001146133db5761308892918891836133535750508160011b916000199060031b1c19161790565b601e8201555b6104208601518051906001600160401b0382116133c7576130bf826130b6601f860154614686565b601f8601614701565b8590601f831160011461335e576130ed92918891836133535750508160011b916000199060031b1c19161790565b601f8201555b838101610440870151600381101561333f57916023916104a09360ff8019835416911617905561046088015160218201556104808801516022820155019501519485516001600160401b03811161332b57613152816123c08454614686565b84601f82116001146132c857819087986131849495969798926132bd5750508160011b916000199060031b1c19161790565b90555b3384526003835260ff60408520541615613227575b7f1d8bf80396e265a2928b67f74999181e294d7a863752be5d2bfa1372002d7aeb9161320f91604051946131d2866004356141aa565b6131dd6024356140d1565b6024359086015260443560408601526064356060860152608435608086015261010060a086015261010085019161485c565b9160e43560c08201524260e08201528033930390a280f35b600254680100000000000000008110156132a9579161320f916132718460017f1d8bf80396e265a2928b67f74999181e294d7a863752be5d2bfa1372002d7aeb960160025561482b565b81549060031b9033821b9160018060a01b03901b19161790553386526003855260408620600160ff198254161790559150915061319c565b634e487b7160e01b85526041600452602485fd5b0151905088806123e4565b82875285872090601f198316885b81811061331457509883600195969798999a106132fb575b505050811b019055613187565b015160001960f88460031b161c191690558780806132ee565b91928860018192868e0151815501940192016132d6565b634e487b7160e01b86526041600452602486fd5b634e487b7160e01b87526021600452602487fd5b0151905089806123e4565b601f840188528688209190601f198416895b898282106133b1575050908460019594939210613398575b505050811b01601f8201556130f3565b015160001960f88460031b161c19169055888080613388565b6001859682939686015181550195019301613370565b634e487b7160e01b87526041600452602487fd5b601e840188528688209190601f198416895b8982821061342e575050908460019594939210613415575b505050811b01601e82015561308e565b015160001960f88460031b161c19169055888080613405565b60018596829396860151815501950193016133ed565b601d840188528688209190601f198416895b8982821061349757505090846001959493921061347e575b505050811b01601d820155613029565b015160001960f88460031b161c1916905588808061346e565b6001859682939686015181550195019301613456565b91906019840188528688209088935b88601f198516861061350257506001945083601f198116106134e9575b505050811b016019820155612f93565b015160001960f88460031b161c191690558880806134d9565b82820151845594850194600190930192909101906134bc565b91906018840188528688209088935b88601f198516861061357057506001945083601f19811610613557575b505050811b016018820155612f2e565b015160001960f88460031b161c19169055888080613547565b828201518455948501946001909301929091019061352a565b91906014840188528688209088935b88601f19851686106135de57506001945083601f198116106135c5575b505050811b016014820155612e98565b015160001960f88460031b161c191690558880806135b5565b8282015184559485019460019093019290910190613598565b91906011840188528688209088935b88601f198516861061364c57506001945083601f19811610613633575b505050811b016011820155612e08565b015160001960f88460031b161c19169055888080613623565b8282015184559485019460019093019290910190613606565b91906010840188528688209088935b88601f19851686106136ba57506001945083601f198116106136a1575b505050811b016010820155612da3565b015160001960f88460031b161c19169055888080613691565b8282015184559485019460019093019290910190613674565b9190600e840188528688209088935b88601f198516861061372857506001945083601f1981161061370f575b505050811b01600e820155612d16565b015160001960f88460031b161c191690558880806136ff565b82820151845594850194600190930192909101906136e2565b91906009840188528688209088935b88601f198516861061379657506001945083601f1981161061377d575b505050811b016009820155612c75565b015160001960f88460031b161c1916905588808061376d565b8282015184559485019460019093019290910190613750565b91906005840188528688209088935b88601f198516861061380457506001945083601f198116106137eb575b505050811b016005820155612bda565b015160001960f88460031b161c191690558880806137db565b82820151845594850194600190930192909101906137be565b91906004840188528688209088935b88601f198516861061387257506001945083601f19811610613859575b505050811b016004820155612b76565b015160001960f88460031b161c19169055888080613849565b828201518455948501946001909301929091019061382c565b634e487b7160e01b86526021600452602486fd5b60405162461bcd60e51b8152602060048201526014602482015273139bdb5a5b995948185b1c9958591e481d5cd95960621b6044820152606490fd5b905033148b612871565b895260046020526040892080546001600160a01b03191690558a61284e565b50808a52600460205260408a20546001600160a01b03163314612849565b60405162461bcd60e51b815260206004820152601b60248201527f42617369632073616c61727920726571756972656420284244542900000000006044820152606490fd5b60405162461bcd60e51b815260206004820152602260248201527f475053206d6f6e74686c7920636f6e747269627574696f6e206d757374206265604482015261020360f41b6064820152608490fd5b60443515613af2576139cd604435602435614f07565b15613aad57606435613a7057608435613a2b5785156128275760405162461bcd60e51b815260206004820152601d60248201527f5052535320656d706c6f7965654964206d75737420626520656d7074790000006044820152606490fd5b60405162461bcd60e51b815260206004820152601c60248201527f505253532073657276696365207965617273206d7573742062652030000000006044820152606490fd5b60405162461bcd60e51b81526020600482015260156024820152740505253532073616c617279206d757374206265203605c1b6044820152606490fd5b60405162461bcd60e51b815260206004820152601760248201527f496e76616c6964207469657220666f7220736368656d650000000000000000006044820152606490fd5b60405162461bcd60e51b815260206004820152601460248201527324b73b30b634b21031b7b73a3934b13aba34b7b760611b6044820152606490fd5b60405162461bcd60e51b815260206004820152601960248201527f4e6f6d696e65652072656c6174696f6e207265717569726564000000000000006044820152606490fd5b60405162461bcd60e51b8152602060048201526015602482015274139bdb5a5b9959481b985b59481c995c5d5a5c9959605a1b6044820152606490fd5b60405162461bcd60e51b815260206004820152602360248201527f4e6f6d696e65652063616e6e6f742062652073616d652061732070656e73696f6044820152623732b960e91b6064820152608490fd5b60405162461bcd60e51b815260206004820152601760248201527f4e6f6d696e65652077616c6c65742072657175697265640000000000000000006044820152606490fd5b60405162461bcd60e51b8152602060048201526015602482015274092dcecc2d8d2c840c8c2e8ca40decc40c4d2e4e8d605b1b6044820152606490fd5b60405162461bcd60e51b815260206004820152601d60248201527f416c72656164792072656769737465726564206f722070656e64696e670000006044820152606490fd5b60039150613cd5816140d1565b148a612789565b3461023757600036600319011261023757602060405160288152f35b3461023757602036600319011261023757613d1161404b565b613d2660018060a01b036000541633146144c8565b6001600160a01b0316613d3a811515614509565b806000526001602052613d5d600160ff600b6040600020015416610846816140d1565b80600052600160205260ff602060406000200154166003811015610221576002613d88911415614590565b6005546024906020906001600160a01b0316613da58115156145cd565b604051928380926312b7d50960e11b82528660048301525afa90811561188f57600091613fa0575b5015613f5c5780600052600160205260ff60406000205460a01c1660028110156102215715613e59575b6000818152600160205260408120600b8101805460ff1916600217905542600d820155600e018054613e2c906117dd90614686565b557f567aeff3e409fd7d29e34a2e96f1037c2960ebc0f086f8a9d172ad32d6f7bfd36020604051428152a2005b80600052600160205260ff6006604060002001541615613f1f5780600052600160205260076040600020015415613ee557806000526001602052600860406000200154613df75760405162461bcd60e51b815260206004820152601960248201527f4750532073657276696365207965617273206d697373696e67000000000000006044820152606490fd5b60405162461bcd60e51b81526020600482015260126024820152714750532073616c617279206d697373696e6760701b6044820152606490fd5b60405162461bcd60e51b815260206004820152601560248201527411d414c819185d18481b9bdd081d995c9a599a5959605a1b6044820152606490fd5b606460405162461bcd60e51b815260206004820152602060248201527f50656e73696f6e657220646f63756d656e7473206e6f7420617070726f7665646044820152fd5b613fb9915060203d6020116118885761187a8183614635565b82613dcd565b34610237576020366003190112610237576001600160a01b03613fe061404b565b166000526001602052602060018060a01b03600f6040600020015416604051908152f35b34610237576020366003190112610237576001600160a01b0361402561404b565b16600052600160205260ff60406000205460a01c16906002821015610221576020918152f35b600435906001600160a01b038216820361023757565b9181601f84011215610237578235916001600160401b038311610237576020838186019501011161023757565b906040600319830112610237576004356001600160a01b03811681036102375791602435906001600160401b038211610237576140cd91600401614061565b9091565b6004111561022157565b602060408183019282815284518094520192019060005b8181106140ff5750505090565b82516001600160a01b03168452602093840193909201916001016140f2565b346102375760003660031901126102375760405180602060025491828152019060026000527f405787fa12a823e0f2b7631cc41b3ba8828b3321ca811111fa75cd3aa3bb5ace9060005b81811061418b576105658561417f81870382614635565b604051918291826140db565b82546001600160a01b0316845260209093019260019283019201614168565b9060028210156102215752565b919082519283825260005b8481106141e3575050826000602080949584010152601f8019910116010190565b806020809284010151828286010152016141c2565b61447c61446461444c6144076143ef6143aa6143786143606143326142e16142a28c60e061428d8e6020815260018060a01b038451166020820152614245602085015160408301906141aa565b6040840151614253816140d1565b606082015260608401516080820152608084015160a082015260a084015160c08201526104e060c0850151916104c08582015201906141b7565b9101518d8203601f19016101008f01526141b7565b6101008d015115156101208d01526101208d01516101408d01526101408d01516101608d01526101608d01518c610180601f19828503019101526141b7565b6101808c01516101a08c01526101a08c01516142fc816140d1565b6101c08c01526101c08c01516101e08c01526101e08c01516102008c01526102008c0151601f198c8303016102208d01526141b7565b6102208b01516001600160a01b03166102408b8101919091528b01518a8203601f19016102608c01526141b7565b6102608a0151898203601f19016102808b01526141b7565b61028089015115156102a08901526102a08901516102c08901526102c0890151601f19898303016102e08a01526141b7565b6102e08801516143b9816140d1565b610300880152610300880151610320880152610320880151610340880152610340880151601f19888303016103608901526141b7565b610360870151868203601f19016103808801526141b7565b610380860151614416816140d1565b6103a08601526103a08601516103c08601526103c08601516103e08601526103e0860151601f19868303016104008701526141b7565b610400850151848203601f19016104208601526141b7565b610420840151838203601f19016104408501526141b7565b906104408301516003811015610221576144c5936104a091610460840152610460810151610480840152610480810151828401520151906104c0601f19828503019101526141b7565b90565b156144cf57565b60405162461bcd60e51b815260206004820152601260248201527113db9b1e4818591b5a5b88185b1b1bddd95960721b6044820152606490fd5b1561451057565b60405162461bcd60e51b815260206004820152600c60248201526b24b73b30b634b2103ab9b2b960a11b6044820152606490fd5b1561454b57565b60405162461bcd60e51b815260206004820152601760248201527f4170706c69636174696f6e206e6f742070656e64696e670000000000000000006044820152606490fd5b1561459757565b60405162461bcd60e51b815260206004820152600e60248201526d1058d8dbdd5b9d0818db1bdcd95960921b6044820152606490fd5b156145d457565b60405162461bcd60e51b815260206004820152601a60248201527f446f63756d656e747320636f6e7472616374206e6f74207365740000000000006044820152606490fd5b6104c081019081106001600160401b038211176109c357604052565b90601f801991011681019081106001600160401b038211176109c357604052565b90816020910312610237575180151581036102375790565b90614678816140d1565b60ff80198354169116179055565b90600182811c921680156146b6575b60208310146146a057565b634e487b7160e01b600052602260045260246000fd5b91607f1691614695565b8181106146cb575050565b600081556001016146c0565b90601f81116146e4575050565b6146ff91600052601f6020600020910160051c8101906146c0565b565b9190601f811161471057505050565b6146ff926000526020600020906020601f840160051c8301931061473c575b601f0160051c01906146c0565b909150819061472f565b1561474d57565b60405162461bcd60e51b8152602060048201526015602482015274496e76616c6964207365727669636520796561727360581b6044820152606490fd5b1561479157565b60405162461bcd60e51b8152602060048201526014602482015273115b5c1b1bde5959481251081c995c5d5a5c995960621b6044820152606490fd5b60028210156102215752565b9291926001600160401b0382116109c35760405191614802601f8201601f191660200184614635565b829481845281830111610237578281602093846000960137010152565b60038210156102215752565b60025481101561484657600260005260206000200190600090565b634e487b7160e01b600052603260045260246000fd5b908060209392818452848401376000828201840152601f01601f1916010190565b1561488457565b60405162461bcd60e51b815260206004820152601160248201527024b73b30b634b2103832b739b4b7b732b960791b6044820152606490fd5b156148c457565b60405162461bcd60e51b815260206004820152600f60248201526e1499585cdbdb881c995c5d5a5c9959608a1b6044820152606490fd5b1561490257565b60405162461bcd60e51b815260206004820152600e60248201526d139bdd081c9959da5cdd195c995960921b6044820152606490fd5b1561493f57565b60405162461bcd60e51b815260206004820152600f60248201526e139bc81919585d1a081c995c1bdc9d608a1b6044820152606490fd5b93929160209161498e9160408752604087019161485c565b930152565b1561499a57565b60405162461bcd60e51b8152602060048201526013602482015272139bc81c195b9cda5bdb995c881b1a5b9ad959606a1b6044820152606490fd5b156149dc57565b60405162461bcd60e51b815260206004820152601660248201527514195b9cda5bdb995c881b9bdd08185c1c1c9bdd995960521b6044820152606490fd5b15614a2157565b60405162461bcd60e51b8152602060048201526012602482015271139bdd081b9bdb5a5b9959481dd85b1b195d60721b6044820152606490fd5b15614a6257565b60405162461bcd60e51b8152602060048201526013602482015272139bdb5a5b9959481b9bdd08185c1c1b1a5959606a1b6044820152606490fd5b919091828114614b7457614ab18354614686565b6001600160401b0381116109c357614acd816123c08454614686565b600093601f8211600114614b0e57614aff9293948291600092614b035750508160011b916000199060031b1c19161790565b9055565b0154905038806123e4565b845260208085208386529085209094601f198316815b818110614b5c57509583600195969710614b43575b505050811b019055565b015460001960f88460031b161c19169055388080614b39565b9192600180602092868b015481550194019201614b24565b509050565b15614b8057565b60405162461bcd60e51b815260206004820152601560248201527414195b9cda5bdb995c881a5cc8191958d9585cd959605a1b6044820152606490fd5b60405190614bca82614619565b60606104a08360008152600060208201526000604082015260008382015260006080820152600060a08201528260c08201528260e082015260006101008201526000610120820152600061014082015282610160820152600061018082015260006101a082015260006101c082015260006101e08201528261020082015260006102208201528261024082015282610260820152600061028082015260006102a0820152826102c082015260006102e0820152600061030082015260006103208201528261034082015282610360820152600061038082015260006103a082015260006103c0820152826103e082015282610400820152826104208201526000610440820152600061046082015260006104808201520152565b9060405191826000825492614cf884614686565b8084529360018116908115614d645750600114614d1d575b506146ff92500383614635565b90506000929192526020600020906000915b818310614d485750509060206146ff9282010138614d10565b6020919350806001915483858901015201910190918492614d2f565b9050602092506146ff94915060ff191682840152151560051b82010138614d10565b6000198114614d955760010190565b634e487b7160e01b600052601160045260246000fd5b6001600160401b0381116109c35760051b60200190565b90614dcc82614dab565b614dd96040519182614635565b8281528092614dea601f1991614dab565b0190602036910137565b80518210156148465760209160051b010190565b630121eb2581108015614efa575b614ef45761271081046064808084040692069061076c8110908115614ee8575b50614ec357600182108015614ede575b614ec357600181108015614ed4575b614ec3576002821480614eca575b614ec35760048214918215614eb8575b8215614ead575b8215614ea2575b5081614e97575b50614e9257600190565b600090565b601e91501138614e88565b600b14915038614e81565b600981149250614e7a565b600681149250614e73565b5050600090565b50601d8111614e63565b50601f8111614e55565b50600c8211614e46565b61083491501138614e36565b50600090565b50630140740f8111614e16565b614f10816140d1565b801561500257614f1f816140d1565b60018114614fc657614f30816140d1565b60028114614f8a57600390614f44816140d1565b14614f4f5750600090565b662386f26fc100008114908115614f79575b8115614f6b575090565b905066766c7d748355551490565b663b363eba41aaaa81149150614f61565b506617af4c4a80aaaa8114908115614fb5575b8115614fa7575090565b9050663b363eba41aaaa1490565b662386f26fc1000081149150614f9d565b50660bd7a6254055558114908115614ff1575b8115614fe3575090565b9050662386f26fc100001490565b6617af4c4a80aaaa81149150614fd9565b506605ebd312a02aaa811490811561502d575b811561501f575090565b90506617af4c4a80aaaa1490565b660bd7a62540555581149150615015565b600a811015908161504d575090565b6028915011159056fea2646970667358221220f0f3dbde5f93e1d741fa62e16c7e0cbca076885d4e7ee374155e86cbe83bf05764736f6c634300081c0033",
  "linkReferences": {},
  "deployedLinkReferences": {}
}