{
  "_format": "hh-sol-artifact-1",
  "contractName": "PensionDocuments",
  "sourceName": "contracts/PensionDocuments.sol",
  "abi": [
    {
      "inputs": [
        {
          "internalType": "address",
          "name": "_registryAddress",
          "type": "address"
        }
      ],
      "stateMutability": "nonpayable",
      "type": "constructor"
    },
    {
      "anonymous": false,
      "inputs": [
        {
          "indexed": true,
          "internalType": "address",
          "name": "user",
          "type": "address"
        },
        {
          "indexed": true,
          "internalType": "enum PensionDocuments.DocumentGroup",
          "name": "group",
          "type": "uint8"
        },
        {
          "indexed": true,
          "internalType": "uint256",
          "name": "docType",
          "type": "uint256"
        },
        {
          "indexed": false,
          "internalType": "uint256",
          "name": "timestamp",
          "type": "uint256"
        }
      ],
      "name": "DocumentApproved",
      "type": "event"
    },
    {
      "anonymous": false,
      "inputs": [
        {
          "indexed": true,
          "internalType": "address",
          "name": "user",
          "type": "address"
        },
        {
          "indexed": true,
          "internalType": "enum PensionDocuments.DocumentGroup",
          "name": "group",
          "type": "uint8"
        },
        {
          "indexed": true,
          "internalType": "uint256",
          "name": "docType",
          "type": "uint256"
        },
        {
          "indexed": false,
          "internalType": "string",
          "name": "reason",
          "type": "string"
        },
        {
          "indexed": false,
          "internalType": "uint256",
          "name": "timestamp",
          "type": "uint256"
        }
      ],
      "name": "DocumentRejected",
      "type": "event"
    },
    {
      "anonymous": false,
      "inputs": [
        {
          "indexed": true,
          "internalType": "address",
          "name": "user",
          "type": "address"
        },
        {
          "indexed": true,
          "internalType": "enum PensionDocuments.DocumentGroup",
          "name": "group",
          "type": "uint8"
        },
        {
          "indexed": true,
          "internalType": "uint256",
          "name": "docType",
          "type": "uint256"
        },
        {
          "indexed": false,
          "internalType": "string",
          "name": "ipfsHash",
          "type": "string"
        },
        {
          "indexed": false,
          "internalType": "uint256",
          "name": "timestamp",
          "type": "uint256"
        }
      ],
      "name": "DocumentSubmitted",
      "type": "event"
    },
    {
      "anonymous": false,
      "inputs": [
        {
          "indexed": true,
          "internalType": "address",
          "name": "user",
          "type": "address"
        },
        {
          "indexed": true,
          "internalType": "enum PensionDocuments.DocumentGroup",
          "name": "group",
          "type": "uint8"
        },
        {
          "indexed": false,
          "internalType": "uint256",
          "name": "count",
          "type": "uint256"
        },
        {
          "indexed": false,
          "internalType": "uint256",
          "name": "timestamp",
          "type": "uint256"
        }
      ],
      "name": "DocumentsBatchReviewed",
      "type": "event"
    },
    {
      "anonymous": false,
      "inputs": [
        {
          "indexed": true,
          "internalType": "address",
          "name": "user",
          "type": "address"
        },
        {
          "indexed": true,
          "internalType": "enum PensionDocuments.DocumentGroup",
          "name": "group",
          "type": "uint8"
        },
        {
          "indexed": false,
          "internalType": "uint256",
          "name": "count",
          "type": "uint256"
        },
        {
          "indexed": false,
          "internalType": "uint256",
          "name": "timestamp",
          "type": "uint256"
        }
      ],
      "name": "DocumentsBatchSubmitted",
      "type": "event"
    },
    {
      "anonymous": false,
      "inputs": [
        {
          "indexed": true,
          "internalType": "address",
          "name": "oldRegistry",
          "type": "address"
        },
        {
          "indexed": true,
          "internalType": "address",
          "name": "newRegistry",
          "type": "address"
        }
      ],
      "name": "RegistryUpdated",
      "type": "event"
    },
    {
      "inputs": [],
      "name": "GPS_REQUIRED_DOCS",
      "outputs": [
        {
          "internalType": "uint256",
          "name": "",
          "type": "uint256"
        }
      ],
      "stateMutability": "view",
      "type": "function"
    },
    {
      "inputs": [],
      "name": "NOMINEE_REQUIRED_DOCS",
      "outputs": [
        {
          "internalType": "uint256",
          "name": "",
          "type": "uint256"
        }
      ],
      "stateMutability": "view",
      "type": "function"
    },
    {
      "inputs": [],
      "name": "PRSS_REQUIRED_DOCS",
      "outputs": [
        {
          "internalType": "uint256",
          "name": "",
          "type": "uint256"
        }
      ],
      "stateMutability": "view",
      "type": "function"
    },
    {
      "inputs": [
        {
          "internalType": "address",
          "name": "user",
          "type": "address"
        },
        {
          "internalType": "enum PensionDocuments.DocumentGroup",
          "name": "group",
          "type": "uint8"
        },
        {
          "internalType": "uint256",
          "name": "docType",
          "type": "uint256"
        }
      ],
      "name": "approveDocument",
      "outputs": [],
      "stateMutability": "nonpayable",
      "type": "function"
    },
    {
      "inputs": [
        {
          "internalType": "address",
          "name": "pensioner",
          "type": "address"
        }
      ],
      "name": "areAllDocumentsApproved",
      "outputs": [
        {
          "internalType": "bool",
          "name": "",
          "type": "bool"
        }
      ],
      "stateMutability": "view",
      "type": "function"
    },
    {
      "inputs": [
        {
          "internalType": "address",
          "name": "nominee",
          "type": "address"
        }
      ],
      "name": "areAllNomineeDocumentsApproved",
      "outputs": [
        {
          "internalType": "bool",
          "name": "",
          "type": "bool"
        }
      ],
      "stateMutability": "view",
      "type": "function"
    },
    {
      "inputs": [
        {
          "internalType": "address",
          "name": "pensioner",
          "type": "address"
        }
      ],
      "name": "areAllPensionerDocumentsApproved",
      "outputs": [
        {
          "internalType": "bool",
          "name": "",
          "type": "bool"
        }
      ],
      "stateMutability": "view",
      "type": "function"
    },
    {
      "inputs": [
        {
          "internalType": "address",
          "name": "pensioner",
          "type": "address"
        },
        {
          "internalType": "uint256",
          "name": "docType",
          "type": "uint256"
        }
      ],
      "name": "getGPSDocument",
      "outputs": [
        {
          "components": [
            {
              "internalType": "string",
              "name": "ipfsHash",
              "type": "string"
            },
            {
              "internalType": "enum PensionDocuments.DocumentStatus",
              "name": "status",
              "type": "uint8"
            },
            {
              "internalType": "string",
              "name": "rejectReason",
              "type": "string"
            },
            {
              "internalType": "uint256",
              "name": "updatedAt",
              "type": "uint256"
            }
          ],
          "internalType": "struct PensionDocuments.Document",
          "name": "",
          "type": "tuple"
        }
      ],
      "stateMutability": "view",
      "type": "function"
    },
    {
      "inputs": [
        {
          "internalType": "address",
          "name": "pensioner",
          "type": "address"
        }
      ],
      "name": "getGPSSubmittedCount",
      "outputs": [
        {
          "internalType": "uint256",
          "name": "",
          "type": "uint256"
        }
      ],
      "stateMutability": "view",
      "type": "function"
    },
    {
      "inputs": [
        {
          "internalType": "address",
          "name": "nominee",
          "type": "address"
        },
        {
          "internalType": "uint256",
          "name": "docType",
          "type": "uint256"
        }
      ],
      "name": "getNomineeDocument",
      "outputs": [
        {
          "components": [
            {
              "internalType": "string",
              "name": "ipfsHash",
              "type": "string"
            },
            {
              "internalType": "enum PensionDocuments.DocumentStatus",
              "name": "status",
              "type": "uint8"
            },
            {
              "internalType": "string",
              "name": "rejectReason",
              "type": "string"
            },
            {
              "internalType": "uint256",
              "name": "updatedAt",
              "type": "uint256"
            }
          ],
          "internalType": "struct PensionDocuments.Document",
          "name": "",
          "type": "tuple"
        }
      ],
      "stateMutability": "view",
      "type": "function"
    },
    {
      "inputs": [
        {
          "internalType": "address",
          "name": "nominee",
          "type": "address"
        }
      ],
      "name": "getNomineeSubmittedCount",
      "outputs": [
        {
          "internalType": "uint256",
          "name": "",
          "type": "uint256"
        }
      ],
      "stateMutability": "view",
      "type": "function"
    },
    {
      "inputs": [
        {
          "internalType": "address",
          "name": "pensioner",
          "type": "address"
        },
        {
          "internalType": "uint256",
          "name": "docType",
          "type": "uint256"
        }
      ],
      "name": "getPRSSDocument",
      "outputs": [
        {
          "components": [
            {
              "internalType": "string",
              "name": "ipfsHash",
              "type": "string"
            },
            {
              "internalType": "enum PensionDocuments.DocumentStatus",
              "name": "status",
              "type": "uint8"
            },
            {
              "internalType": "string",
              "name": "rejectReason",
              "type": "string"
            },
            {
              "internalType": "uint256",
              "name": "updatedAt",
              "type": "uint256"
            }
          ],
          "internalType": "struct PensionDocuments.Document",
          "name": "",
          "type": "tuple"
        }
      ],
      "stateMutability": "view",
      "type": "function"
    },
    {
      "inputs": [
        {
          "internalType": "address",
          "name": "pensioner",
          "type": "address"
        }
      ],
      "name": "getPRSSSubmittedCount",
      "outputs": [
        {
          "internalType": "uint256",
          "name": "",
          "type": "uint256"
        }
      ],
      "stateMutability": "view",
      "type": "function"
    },
    {
      "inputs": [],
      "name": "getRegistryAddress",
      "outputs": [
        {
          "internalType": "address",
          "name": "",
          "type": "address"
        }
      ],
      "stateMutability": "view",
      "type": "function"
    },
    {
      "inputs": [],
      "name": "registry",
      "outputs": [
        {
          "internalType": "contract IPensionRegistry",
          "name": "",
          "type": "address"
        }
      ],
      "stateMutability": "view",
      "type": "function"
    },
    {
      "inputs": [
        {
          "internalType": "address",
          "name": "user",
          "type": "address"
        },
        {
          "internalType": "enum PensionDocuments.DocumentGroup",
          "name": "group",
          "type": "uint8"
        },
        {
          "internalType": "uint256",
          "name": "docType",
          "type": "uint256"
        },
        {
          "internalType": "string",
          "name": "reason",
          "type": "string"
        }
      ],
      "name": "rejectDocument",
      "outputs": [],
      "stateMutability": "nonpayable",
      "type": "function"
    },
    {
      "inputs": [
        {
          "internalType": "address",
          "name": "pensioner",
          "type": "address"
        },
        {
          "internalType": "uint256[]",
          "name": "docTypes",
          "type": "uint256[]"
        },
        {
          "internalType": "bool[]",
          "name": "decisions",
          "type": "bool[]"
        },
        {
          "internalType": "string[]",
          "name": "reasons",
          "type": "string[]"
        }
      ],
      "name": "reviewGPSDocumentsBatch",
      "outputs": [],
      "stateMutability": "nonpayable",
      "type": "function"
    },
    {
      "inputs": [
        {
          "internalType": "address",
          "name": "nominee",
          "type": "address"
        },
        {
          "internalType": "uint256[]",
          "name": "docTypes",
          "type": "uint256[]"
        },
        {
          "internalType": "bool[]",
          "name": "decisions",
          "type": "bool[]"
        },
        {
          "internalType": "string[]",
          "name": "reasons",
          "type": "string[]"
        }
      ],
      "name": "reviewNomineeDocumentsBatch",
      "outputs": [],
      "stateMutability": "nonpayable",
      "type": "function"
    },
    {
      "inputs": [
        {
          "internalType": "address",
          "name": "pensioner",
          "type": "address"
        },
        {
          "internalType": "uint256[]",
          "name": "docTypes",
          "type": "uint256[]"
        },
        {
          "internalType": "bool[]",
          "name": "decisions",
          "type": "bool[]"
        },
        {
          "internalType": "string[]",
          "name": "reasons",
          "type": "string[]"
        }
      ],
      "name": "reviewPRSSDocumentsBatch",
      "outputs": [],
      "stateMutability": "nonpayable",
      "type": "function"
    },
    {
      "inputs": [
        {
          "internalType": "address",
          "name": "newRegistry",
          "type": "address"
        }
      ],
      "name": "setRegistry",
      "outputs": [],
      "stateMutability": "nonpayable",
      "type": "function"
    },
    {
      "inputs": [
        {
          "internalType": "uint256",
          "name": "docType",
          "type": "uint256"
        },
        {
          "internalType": "string",
          "name": "ipfsHash",
          "type": "string"
        }
      ],
      "name": "submitNomineeClaimDocument",
      "outputs": [],
      "stateMutability": "nonpayable",
      "type": "function"
    },
    {
      "inputs": [
        {
          "internalType": "uint256[]",
          "name": "docTypes",
          "type": "uint256[]"
        },
        {
          "internalType": "string[]",
          "name": "ipfsHashes",
          "type": "string[]"
        }
      ],
      "name": "submitNomineeClaimDocumentsBatch",
      "outputs": [],
      "stateMutability": "nonpayable",
      "type": "function"
    },
    {
      "inputs": [
        {
          "internalType": "uint256",
          "name": "docType",
          "type": "uint256"
        },
        {
          "internalType": "string",
          "name": "ipfsHash",
          "type": "string"
        }
      ],
      "name": "submitPensionerDocument",
      "outputs": [],
      "stateMutability": "nonpayable",
      "type": "function"
    },
    {
      "inputs": [
        {
          "internalType": "uint256[]",
          "name": "docTypes",
          "type": "uint256[]"
        },
        {
          "internalType": "string[]",
          "name": "ipfsHashes",
          "type": "string[]"
        }
      ],
      "name": "submitPensionerDocumentsBatch",
      "outputs": [],
      "stateMutability": "nonpayable",
      "type": "function"
    }
  ],
  "bytecode": "0x60803460ba57601f612e2e38819003918201601f19168301916001600160401b0383118484101760bf5780849260209460405283398101031260ba57516001600160a01b0381169081900360ba578015607557600080546001600160a01b031916919091179055604051612d5890816100d68239f35b60405162461bcd60e51b815260206004820152601860248201527f496e76616c6964207265676973747279206164647265737300000000000000006044820152606490fd5b600080fd5b634e487b7160e01b600052604160045260246000fdfe608080604052600436101561001357600080fd5b60003560e01c9081630410f11c146119aa5750806315306e8b14611768578063160c59a2146105f9578063256faa121461176357806329e387c11461176357806347cee89c146117065780634cf3295a146112ce57806353ecee75146111255780635776655714610fa95780636086940614610c78578063750136f6146109ad5780637b1039991461012757806389cdc65b146106915780638fa02ee71461062b578063906766e3146105fe578063928671ee146105f9578063a2ba9b5d1461052d578063a91ee0dc14610445578063a99a61101461040b578063b8842d44146101e5578063bc576f7f146101c9578063c84beb9e1461018f578063d64a6324146101555763f21de1e81461012757600080fd5b34610150576000366003190112610150576000546040516001600160a01b039091168152602090f35b600080fd5b34610150576020366003190112610150576001600160a01b03610176611c68565b1660005260066020526020604060002054604051908152f35b34610150576020366003190112610150576001600160a01b036101b0611c68565b1660005260046020526020604060002054604051908152f35b3461015057600036600319011261015057602060405160048152f35b34610150576060366003190112610150576101fe611c68565b602435600381101561015057600054604051630935e01b60e21b81523360048201526044359391602090829060249082906001600160a01b03165afa80156103ff57610252916000916103d0575b50611f0c565b6001600160a01b0316610266811515612484565b6000826103215761027960098510612503565b8160005260016020526040600020610290856123d8565b610299856123d8565b84600052602052604060002060018101600281546102c5600160ff83166102bf81611e01565b14612076565b60ff19161790556000600282016102e56102df8254612142565b82612193565b556003429101555b61030b57600080516020612ce38339815191526020604051428152a4005b634e487b7160e01b600052602160045260246000fd5b506000600183036103a457610338600985106124bf565b816000526002602052604060002061034f856123d8565b610358856123d8565b846000526020526040600020600181016002815461037e600160ff83166102bf81611e01565b60ff19161790556000600282016103986102df8254612142565b556003429101556102ed565b6103b06004851061202a565b81600052600360205260406000206103c785611e01565b61035885611e01565b6103f2915060203d6020116103f8575b6103ea8183611ed3565b810190611ef4565b8561024c565b503d6103e0565b6040513d6000823e3d90fd5b34610150576020366003190112610150576001600160a01b0361042c611c68565b1660005260056020526020604060002054604051908152f35b346101505760203660031901126101505761045e611c68565b600054604051630935e01b60e21b815233600482015290916001600160a01b03831691602081602481865afa80156103ff576104a1916000916103d05750611f0c565b6001600160a01b03169182156104e8576001600160a01b031916821760009081557f482b97c53e48ffa324a976e2738053e9aff6eee04d8aac63b10e19411d869b829080a3005b60405162461bcd60e51b815260206004820152601860248201527f496e76616c6964207265676973747279206164647265737300000000000000006044820152606490fd5b3461015057604036600319011261015057610546611c68565b60243590610552612334565b506001600160a01b0316610567811515612359565b61057360098310612399565b600052600160205260406000209061058a816123d8565b610593816123d8565b6000526020526105f560406000206003604051916105b083611eb8565b6105b9816123e2565b835260ff6001820154166105cc81611e01565b60208401526105dd600282016123e2565b60408401520154606082015260405191829182611e0b565b0390f35b611d81565b3461015057602036600319011261015057602061062161061c611c68565b6125d3565b6040519015158152f35b3461015057604036600319011261015057610644611c68565b60243590610650612334565b506001600160a01b0316610665811515611f4d565b61067160048310612399565b600052600360205260406000209061068881611e01565b61059381611e01565b346101505761069f36611cae565b600054604051630935e01b60e21b815233600482015295979196959294939290602090829060249082906001600160a01b03165afa80156103ff576106eb9160009161098e5750611f0c565b6001600160a01b031694610700861515612359565b61070b871515611f8b565b610716828814611fc6565b610721818814611fc6565b60005b878110610760576000877f72c2b02bf941676f95f7c6715e2d2c361c4bce7529f91c5aa3d9c06fc7d3c3d160408b8151908152426020820152a3005b6107776009610770838b8a612004565b3510612503565b8660005260016020526040600020610790828a89612004565b3561079a816123d8565b6107a3816123d8565b60005260205260406000206001810180546107c6600160ff83166102bf81611e01565b6107d96107d485888a612004565b6120b6565b1561083757509060019291600260ff198254161790556000600282016108026102df8254612142565b55600342910155610814818a89612004565b35600089600080516020612ce38339815191526020604051428152a45b01610724565b60039061085161084886888c6120c3565b90501515612104565b60ff19161790556108638284886120c3565b60028301916001600160401b0382116109785761088a826108848554612142565b856121bd565b600090601f831160011461090f576001959493929160009183610904575b5050600019600383901b1c191690851b1790555b6003429101556108cd818a89612004565b35600089600080516020612d038339815191526108eb85888c6120c3565b6108fc604051928392429184612202565b0390a4610831565b013590508d806108a8565b8382526020822091601f198416815b81811061096057509160019796959492918389959310610946575b505050811b0190556108bc565b0135600019600384901b60f8161c191690558d8080610939565b9193602060018192878701358155019501920161091e565b634e487b7160e01b600052604160045260246000fd5b6109a7915060203d6020116103f8576103ea8183611ed3565b8961024c565b34610150576109bb36611cae565b9293956024602060018060a0999695991b036000541660405192838092630935e01b60e21b82523360048301525afa80156103ff57610a019160009161098e5750611f0c565b6001600160a01b031694610a16861515612359565b610a21871515611f8b565b610a2c828814611fc6565b610a37848814611fc6565b60005b878110610a76576001877f72c2b02bf941676f95f7c6715e2d2c361c4bce7529f91c5aa3d9c06fc7d3c3d160408b8151908152426020820152a3005b610a8d6009610a86838b88612004565b35106124bf565b8660005260026020526040600020610aa6828a87612004565b35610ab0816123d8565b610ab9816123d8565b6000526020526040600020600181018054610adc600160ff83166102bf81611e01565b610aea6107d485888c612004565b15610b4757509060019291600260ff19825416179055600060028201610b136102df8254612142565b55600342910155610b25818a87612004565b358289600080516020612ce38339815191526020604051428152a45b01610a3a565b600390610b58610848868b896120c3565b60ff1916179055610b6a8287856120c3565b60028301916001600160401b03821161097857610b8b826108848554612142565b600090601f8311600114610c0f576001959493929160009183610c04575b5050600019600383901b1c191690851b1790555b600342910155610bce818a87612004565b358289600080516020612d03833981519152610beb858b896120c3565b610bfc604051928392429184612202565b0390a4610b41565b013590508d80610ba9565b8382526020822091601f198416815b818110610c6057509160019796959492918389959310610c46575b505050811b019055610bbd565b0135600019600384901b60f8161c191690558d8080610c39565b91936020600181928787013581550195019201610c1e565b3461015057610c8636611d35565b929060018060a01b0360005416604051637ea7d02d60e11b8152336004820152602081602481855afa9081156103ff57610ccd9160ff91600091610f8a575b501615612546565b6040516330ccebb560e01b8152336004820152602081602481855afa9182156103ff57610d1760ff602494602094600091610f6d575b501660018114908115610f62575b50612587565b610d22861515611f8b565b610d2d878714611fc6565b60405163058616e760e01b815233600482015292839182905afa80156103ff5760ff91600091610f33575b501680610e2c575090919260098411610df35760005b848110610db057505050506000906040519081524260208201527f20280f250b9903229ee69b25e0c2f92acb83de38e7ea3294027b8032cd9f3c9c60403392a3005b80610dc360096107706001948989612004565b610ded610dd1828888612004565b35610ddb816123d8565b610de68386886120c3565b9133612b4a565b01610d6e565b60405162461bcd60e51b8152602060048201526011602482015270546f6f206d616e792047505320646f637360781b6044820152606490fd5b600103610efc5760098311610ec25760019360005b848110610e8057505050506040519081524260208201527f20280f250b9903229ee69b25e0c2f92acb83de38e7ea3294027b8032cd9f3c9c60403392a3005b80610e926009610a8689948989612004565b610ebc610ea0828888612004565b35610eaa816123d8565b610eb58386886120c3565b91336129c1565b01610e41565b60405162461bcd60e51b8152602060048201526012602482015271546f6f206d616e79205052535320646f637360701b6044820152606490fd5b60405162461bcd60e51b815260206004820152600f60248201526e496e76616c69642070726f6772616d60881b6044820152606490fd5b610f55915060203d602011610f5b575b610f4d8183611ed3565b81019061228a565b86610d58565b503d610f43565b600391501489610d11565b610f849150853d8711610f5b57610f4d8183611ed3565b8a610d03565b610fa3915060203d602011610f5b57610f4d8183611ed3565b88610cc5565b3461015057610fb736611e89565b9060018060a01b0360005416604051637ea7d02d60e11b8152336004820152602081602481855afa9081156103ff57610ffc9160ff9160009161110657501615612546565b6040516330ccebb560e01b8152336004820152602081602481855afa9182156103ff5761104560ff6024946020946000916110e9575b5016600181149081156110de5750612587565b60405163058616e760e01b815233600482015292839182905afa80156103ff5760ff916000916110bf575b50168061109957508261108860096110979510612503565b611091816123d8565b33612b4a565b005b600103610efc57826110b0600961109795106124bf565b6110b9816123d8565b336129c1565b6110d8915060203d602011610f5b57610f4d8183611ed3565b85611070565b600391501488610d11565b6111009150853d8711610f5b57610f4d8183611ed3565b89611032565b61111f915060203d602011610f5b57610f4d8183611ed3565b87610cc5565b346101505761113336611e89565b9060018060a01b03600054169260405163424fea2360e01b8152336004820152602081602481885afa80156103ff5761117f916000916112af575b506001600160a01b03161515612250565b61118b6004821061202a565b60405163424fea2360e01b8152336004820152602081602481885afa9081156103ff57600091611280575b50604051637ea7d02d60e11b81526001600160a01b0390911660048201819052602082602481895afa80156103ff5760ff6111fe91602094600091611263575b5016156122a3565b602460405180978193633eb20a9360e21b835260048301525afa9384156103ff576110979461123591600091611244575b506122ef565b61123e81611e01565b336126a2565b61125d915060203d6020116103f8576103ea8183611ed3565b8661122f565b61127a9150853d8711610f5b57610f4d8183611ed3565b896111f6565b6112a2915060203d6020116112a8575b61129a8183611ed3565b810190612231565b856111b6565b503d611290565b6112c8915060203d6020116112a85761129a8183611ed3565b8661116e565b34610150576080366003190112610150576112e7611c68565b602435600381101561015057604435916064356001600160401b03811161015057611316903690600401611e5c565b600054604051630935e01b60e21b81523360048201529293919290602090829060249082906001600160a01b03165afa80156103ff5761135d916000916116e75750611f0c565b6001600160a01b031691611372831515612484565b61137d821515612104565b6000846114cc5761139060098710612503565b83600052600160205260406000206113a7876123d8565b6113b0876123d8565b86600052602052604060002060018101600381546113d6600160ff83166102bf81611e01565b60ff1916179055600281016001600160401b03851161097857611403856113fd8354612142565b836121bd565b846000601f82116001146114695760009161145e575b508560011b906000198760031b1c19161790555b6003429101555b61030b57600080516020612d0383398151915291611459604051928392429184612202565b0390a4005b905084013589611419565b82815260208120915086601f198116825b8181106114b1575010611497575b5050600185811b01905561142d565b850135600019600388901b60f8161c191690558880611488565b8884013585556001909401936020938401938a93500161147a565b506000600185036115f3576114e3600987106124bf565b83600052600260205260406000206114fa876123d8565b611503876123d8565b8660005260205260406000206001810160038154611529600160ff83166102bf81611e01565b60ff1916179055600281016001600160401b03851161097857611550856113fd8354612142565b846000601f821160011461159057600091611585575b508560011b906000198760031b1c19161790555b600342910155611434565b905084013589611566565b82815260208120915086601f198116825b8181106115d85750106115be575b5050600185811b01905561157a565b850135600019600388901b60f8161c1916905588806115af565b8884013585556001909401936020938401938a9350016115a1565b6115ff6004871061202a565b836000526003602052604060002061161687611e01565b61161f87611e01565b8660005260205260406000206001810160038154611645600160ff83166102bf81611e01565b60ff1916179055600281016001600160401b0385116109785761166c856113fd8354612142565b846000601f821160011461169f5760009161158557508560011b906000198760031b1c1916179055600342910155611434565b82815260208120915086601f198116825b8181106116cc5750106115be575050600185811b01905561157a565b8884013585556001909401936020938401938a9350016116b0565b611700915060203d6020116103f8576103ea8183611ed3565b8761024c565b346101505760403660031901126101505761171f611c68565b6024359061172b612334565b506001600160a01b0316611740811515612359565b61174c60098310612399565b600052600260205260406000209061058a816123d8565b611d9d565b346101505761177636611d35565b60005460405163424fea2360e01b81523360048201529394936001600160a01b0390911690602081602481855afa80156103ff576117c69160009161198b57506001600160a01b03161515612250565b6117d1851515611f8b565b6117dc828614611fc6565b6004851161194e5760405163424fea2360e01b8152336004820152602081602481855afa9081156103ff5760009161192f575b50604051637ea7d02d60e11b81526001600160a01b0390911660048201819052602082602481865afa80156103ff5760ff61185691602094600091611912575016156122a3565b602460405180948193633eb20a9360e21b835260048301525afa80156103ff576118879160009161124457506122ef565b60005b8481106118c8576002856040519081524260208201527f20280f250b9903229ee69b25e0c2f92acb83de38e7ea3294027b8032cd9f3c9c60403392a3005b806118e260046118db6001948989612004565b351061202a565b61190c6118f0828888612004565b356118fa81611e01565b6119058386886120c3565b91336126a2565b0161188a565b6119299150853d8711610f5b57610f4d8183611ed3565b8a6111f6565b611948915060203d6020116112a85761129a8183611ed3565b8661180f565b60405162461bcd60e51b8152602060048201526015602482015274546f6f206d616e79206e6f6d696e656520646f637360581b6044820152606490fd5b6119a4915060203d6020116112a85761129a8183611ed3565b8761116e565b34610150576119b836611cae565b9590939660208160248160018060a01b0360005416630935e01b60e21b82523360048301525afa80156103ff576119f69160009161098e5750611f0c565b6001600160a01b031694611a0b861515611f4d565b611a16871515611f8b565b611a21828814611fc6565b611a2c818814611fc6565b60005b878110611a6b576002877f72c2b02bf941676f95f7c6715e2d2c361c4bce7529f91c5aa3d9c06fc7d3c3d160408b8151908152426020820152a3005b611a7b60046118db838b8a612004565b8660005260036020526040600020611a94828a89612004565b35611a9e81611e01565b611aa781611e01565b6000526020526040600020600181018054611aca600160ff83166102bf81611e01565b611ad86107d485888a612004565b15611b3657509060019291600260ff19825416179055600060028201611b016102df8254612142565b55600342910155611b13818a89612004565b35600289600080516020612ce38339815191526020604051428152a45b01611a2f565b600390611b4761084886888c6120c3565b60ff1916179055611b598284886120c3565b60028301916001600160401b03821161097857611b7a826108848554612142565b600090601f8311600114611bff576001959493929160009183611bf4575b5050600019600383901b1c191690851b1790555b600342910155611bbd818a89612004565b35600289600080516020612d03833981519152611bdb85888c6120c3565b611bec604051928392429184612202565b0390a4611b30565b013590508d80611b98565b8382526020822091601f198416815b818110611c5057509160019796959492918389959310611c36575b505050811b019055611bac565b0135600019600384901b60f8161c191690558d8080611c29565b91936020600181928787013581550195019201611c0e565b600435906001600160a01b038216820361015057565b9181601f84011215610150578235916001600160401b038311610150576020808501948460051b01011161015057565b906080600319830112610150576004356001600160a01b038116810361015057916024356001600160401b0381116101505781611ced91600401611c7e565b929092916044356001600160401b0381116101505781611d0f91600401611c7e565b92909291606435906001600160401b03821161015057611d3191600401611c7e565b9091565b6040600319820112610150576004356001600160401b0381116101505781611d5f91600401611c7e565b92909291602435906001600160401b03821161015057611d3191600401611c7e565b3461015057600036600319011261015057602060405160098152f35b34610150576020366003190112610150576020610621611dbb611c68565b612859565b919082519283825260005b848110611dec575050826000602080949584010152601f8019910116010190565b80602080928401015182828601015201611dcb565b6004111561030b57565b6020815260806060611e53611e2b855184602087015260a0860190611dc0565b6020860151611e3981611e01565b60408601526040860151601f198683030184870152611dc0565b93015191015290565b9181601f84011215610150578235916001600160401b038311610150576020838186019501011161015057565b9060406003198301126101505760043591602435906001600160401b03821161015057611d3191600401611e5c565b608081019081106001600160401b0382111761097857604052565b90601f801991011681019081106001600160401b0382111761097857604052565b90816020910312610150575180151581036101505790565b15611f1357565b60405162461bcd60e51b815260206004820152601260248201527113db9b1e4818591b5a5b88185b1b1bddd95960721b6044820152606490fd5b15611f5457565b60405162461bcd60e51b815260206004820152600f60248201526e496e76616c6964206e6f6d696e656560881b6044820152606490fd5b15611f9257565b60405162461bcd60e51b815260206004820152600c60248201526b4e6f20646f63756d656e747360a01b6044820152606490fd5b15611fcd57565b60405162461bcd60e51b815260206004820152600f60248201526e098cadccee8d040dad2e6dac2e8c6d608b1b6044820152606490fd5b91908110156120145760051b0190565b634e487b7160e01b600052603260045260246000fd5b1561203157565b60405162461bcd60e51b815260206004820152601860248201527f496e76616c6964206e6f6d696e656520646f63207479706500000000000000006044820152606490fd5b1561207d57565b60405162461bcd60e51b8152602060048201526011602482015270111bd8c81b9bdd081cdd589b5a5d1d1959607a1b6044820152606490fd5b3580151581036101505790565b91908110156120145760051b81013590601e19813603018212156101505701908135916001600160401b038311610150576020018236038113610150579190565b1561210b57565b60405162461bcd60e51b815260206004820152600f60248201526e1499585cdbdb881c995c5d5a5c9959608a1b6044820152606490fd5b90600182811c92168015612172575b602083101461215c57565b634e487b7160e01b600052602260045260246000fd5b91607f1691612151565b818110612187575050565b6000815560010161217c565b90601f81116121a0575050565b6121bb91600052601f6020600020910160051c81019061217c565b565b9190601f81116121cc57505050565b6121bb926000526020600020906020601f840160051c830193106121f8575b601f0160051c019061217c565b90915081906121eb565b9392918060609160209360408852816040890152838801376000828288010152601f8019910116850101930152565b9081602091031261015057516001600160a01b03811681036101505790565b1561225757565b60405162461bcd60e51b815260206004820152600b60248201526a4e6f74206e6f6d696e656560a81b6044820152606490fd5b90816020910312610150575160ff811681036101505790565b156122aa57565b60405162461bcd60e51b815260206004820152601c60248201527f50656e73696f6e6572206163636f756e74206e6f7420616374697665000000006044820152606490fd5b156122f657565b60405162461bcd60e51b815260206004820152601660248201527514195b9cda5bdb995c881b9bdd08191958d9585cd95960521b6044820152606490fd5b6040519061234182611eb8565b60006060838181528260208201528160408201520152565b1561236057565b60405162461bcd60e51b815260206004820152601160248201527024b73b30b634b2103832b739b4b7b732b960791b6044820152606490fd5b156123a057565b60405162461bcd60e51b815260206004820152601060248201526f496e76616c696420646f63207479706560801b6044820152606490fd5b6009111561030b57565b90604051918260008254926123f684612142565b8084529360018116908115612462575060011461241b575b506121bb92500383611ed3565b90506000929192526020600020906000915b8183106124465750509060206121bb928201013861240e565b602091935080600191548385890101520191019091849261242d565b9050602092506121bb94915060ff191682840152151560051b8201013861240e565b1561248b57565b60405162461bcd60e51b815260206004820152600c60248201526b24b73b30b634b2103ab9b2b960a11b6044820152606490fd5b156124c657565b60405162461bcd60e51b8152602060048201526015602482015274496e76616c6964205052535320646f63207479706560581b6044820152606490fd5b1561250a57565b60405162461bcd60e51b8152602060048201526014602482015273496e76616c69642047505320646f63207479706560601b6044820152606490fd5b1561254d57565b60405162461bcd60e51b81526020600482015260126024820152714163636f756e74206e6f742061637469766560701b6044820152606490fd5b1561258e57565b60405162461bcd60e51b815260206004820152601e60248201527f4e6f7420616c6c6f77656420746f207375626d697420646f6373206e6f7700006044820152606490fd5b6001600160a01b0316801561265c5780600052600660205260046040600020541061265c5760005b6004811061260a575050600190565b816000526003602052604060002061262182611e01565b61262a82611e01565b81600052602052600260ff6001604060002001541661264881611e01565b03612655576001016125fb565b5050600090565b50600090565b1561266957565b60405162461bcd60e51b8152602060048201526011602482015270092dcecc2d8d2c84092a08ca640d0c2e6d607b1b6044820152606490fd5b9392939190916126b3851515612662565b6001600160a01b031660008181526003602052604090209091906126d684611e01565b83600052602052604060002094600186019560ff8754166126f681611e01565b15612821575b6001600160401b03821161097857612718826113fd8354612142565b600096601f83116001146127a957908291600080516020612cc38339815191529493600297989960009161279e575b508360011b906000198560031b1c19161782555b600160ff1982541617905560008682016127786102df8254612142565b5560034291015561278886611e01565b612799604051928392429184612202565b0390a4565b905084013538612747565b81885260208820601f198416895b818110612809575090600297989985600080516020612cc38339815191529796959493106127ef575b5050600183811b01825561275b565b850135600019600386901b60f8161c1916905538806127e0565b868b0135835560209a8b019a600190930192016127b7565b83600052600660205260406000208054906001820180921161284357556126fc565b634e487b7160e01b600052601160045260246000fd5b6001600160a01b0316801561265c5760005460405163058616e760e01b81526004810183905290602090829060249082906001600160a01b03165afa80156103ff5760ff916000916129a2575b5016801561292e576001146128bb5750600090565b80600052600560205260096040600020541061265c5760005b600981106128e3575050600190565b81600052600260205260406000206128fa826123d8565b612903826123d8565b81600052602052600260ff6001604060002001541661292181611e01565b03612655576001016128d4565b5080600052600460205260096040600020541061265c5760005b60098110612957575050600190565b816000526001602052604060002061296e826123d8565b612977826123d8565b81600052602052600260ff6001604060002001541661299581611e01565b0361265557600101612948565b6129bb915060203d602011610f5b57610f4d8183611ed3565b386128a6565b9392939190916129d2851515612662565b6001600160a01b031660008181526002602052604090209091906129f5846123d8565b83600052602052604060002094600186019560ff875416612a1581611e01565b15612b28575b6001600160401b03821161097857612a37826113fd8354612142565b600096601f8311600114612ab157908291600080516020612cc383398151915294936001979899600091612aa6575b50600019600385901b1c191683881b1782555b8660ff19825416179055600060028201612a966102df8254612142565b55600342910155612788866123d8565b905084013538612a66565b81885260208820601f198416895b818110612b10575090600197989985600080516020612cc3833981519152979695949310612af6575b50508683811b018255612a79565b850135600019600386901b60f8161c191690553880612ae8565b868b0135835560209a8b019a60019093019201612abf565b8360005260056020526040600020805490600182018092116128435755612a1b565b939293919091612b5b851515612662565b6001600160a01b03166000818152600160205260409020909190612b7e846123d8565b83600052602052604060002094600186019560ff875416612b9e81611e01565b15612ca0575b6001600160401b03821161097857612bc0826113fd8354612142565b600096601f8311600114612c2957908291600080516020612cc3833981519152949360009798998891612c1e575b508360011b9088198560031b1c19161782555b600160ff198254161790558560028201612a966102df8254612142565b905084013538612bee565b81885260208820601f198416895b818110612c88575090600097989985600080516020612cc3833981519152979695949310612c6f575b5050600183811b018255612c01565b881960f88660031b161c19908601351690553880612c60565b868b0135835560209a8b019a60019093019201612c37565b8360005260046020526040600020805490600182018092116128435755612ba456fe3a886c6968ab12461f1c7119ca198907afc16390541ed6493512d9532c8609f9885e9414f99dc02793acabfdebbf3f1b0b394f0bcf3f0a1cdeac7ccc03043df5fe50b4f5224de2551e64038cc15d148404a9a079255af78d676cecebc19f7820a2646970667358221220231d21da98694c9f233dabc060f33561996a588b7b3b8b1b9cc8acadbe0de96564736f6c634300081c0033",
  "linkReferences": {},
  "deployedLinkReferences": {}
}