{
  "_format": "hh-sol-artifact-1",
  "contractName": "PensionDisbursement",
  "sourceName": "contracts/PensionDisbursement.sol",
  "abi": [
    {
      "inputs": [
        {
          "internalType": "address",
          "name": "registryAddress",
          "type": "address"
        },
        {
          "internalType": "address",
          "name": "fundAddress",
          "type": "address"
        }
      ],
      "stateMutability": "nonpayable",
      "type": "constructor"
    },
    {
      "anonymous": false,
      "inputs": [
        {
          "indexed": true,
          "internalType": "address",
          "name": "pensioner",
          "type": "address"
        },
        {
          "indexed": true,
          "internalType": "address",
          "name": "nominee",
          "type": "address"
        },
        {
          "indexed": false,
          "internalType": "uint256",
          "name": "amount",
          "type": "uint256"
        },
        {
          "indexed": false,
          "internalType": "uint256",
          "name": "timestamp",
          "type": "uint256"
        }
      ],
      "name": "FullNomineePensionWithdrawn",
      "type": "event"
    },
    {
      "anonymous": false,
      "inputs": [
        {
          "indexed": true,
          "internalType": "address",
          "name": "pensioner",
          "type": "address"
        },
        {
          "indexed": false,
          "internalType": "uint256",
          "name": "amount",
          "type": "uint256"
        },
        {
          "indexed": false,
          "internalType": "uint256",
          "name": "timestamp",
          "type": "uint256"
        }
      ],
      "name": "FullPensionWithdrawn",
      "type": "event"
    },
    {
      "anonymous": false,
      "inputs": [
        {
          "indexed": true,
          "internalType": "address",
          "name": "pensioner",
          "type": "address"
        },
        {
          "indexed": false,
          "internalType": "uint256",
          "name": "amountWei",
          "type": "uint256"
        },
        {
          "indexed": false,
          "internalType": "uint256",
          "name": "timestamp",
          "type": "uint256"
        }
      ],
      "name": "GPSGratuityPaid",
      "type": "event"
    },
    {
      "anonymous": false,
      "inputs": [
        {
          "indexed": true,
          "internalType": "address",
          "name": "pensioner",
          "type": "address"
        },
        {
          "indexed": true,
          "internalType": "address",
          "name": "nominee",
          "type": "address"
        },
        {
          "indexed": false,
          "internalType": "uint256",
          "name": "amountWei",
          "type": "uint256"
        },
        {
          "indexed": false,
          "internalType": "uint256",
          "name": "timestamp",
          "type": "uint256"
        }
      ],
      "name": "GPSGratuityPaidToNominee",
      "type": "event"
    },
    {
      "anonymous": false,
      "inputs": [
        {
          "indexed": true,
          "internalType": "address",
          "name": "pensioner",
          "type": "address"
        },
        {
          "indexed": true,
          "internalType": "address",
          "name": "nominee",
          "type": "address"
        },
        {
          "indexed": false,
          "internalType": "uint256",
          "name": "amount",
          "type": "uint256"
        },
        {
          "indexed": false,
          "internalType": "uint256",
          "name": "timestamp",
          "type": "uint256"
        }
      ],
      "name": "MonthlyNomineePensionWithdrawn",
      "type": "event"
    },
    {
      "anonymous": false,
      "inputs": [
        {
          "indexed": true,
          "internalType": "address",
          "name": "pensioner",
          "type": "address"
        },
        {
          "indexed": false,
          "internalType": "uint256",
          "name": "amount",
          "type": "uint256"
        },
        {
          "indexed": false,
          "internalType": "uint256",
          "name": "timestamp",
          "type": "uint256"
        }
      ],
      "name": "MonthlyPensionWithdrawn",
      "type": "event"
    },
    {
      "anonymous": false,
      "inputs": [
        {
          "indexed": true,
          "internalType": "address",
          "name": "pensioner",
          "type": "address"
        },
        {
          "indexed": true,
          "internalType": "address",
          "name": "nominee",
          "type": "address"
        },
        {
          "indexed": false,
          "internalType": "uint256",
          "name": "usedMonths",
          "type": "uint256"
        },
        {
          "indexed": false,
          "internalType": "uint256",
          "name": "maxMonths",
          "type": "uint256"
        },
        {
          "indexed": false,
          "internalType": "uint256",
          "name": "timestamp",
          "type": "uint256"
        }
      ],
      "name": "NomineeFamilyPensionMonthUsed",
      "type": "event"
    },
    {
      "anonymous": false,
      "inputs": [
        {
          "indexed": true,
          "internalType": "address",
          "name": "pensioner",
          "type": "address"
        },
        {
          "indexed": false,
          "internalType": "enum PensionDisbursement.PensionMode",
          "name": "mode",
          "type": "uint8"
        }
      ],
      "name": "PensionModeChosen",
      "type": "event"
    },
    {
      "anonymous": false,
      "inputs": [
        {
          "indexed": true,
          "internalType": "address",
          "name": "pensioner",
          "type": "address"
        },
        {
          "indexed": false,
          "internalType": "uint256",
          "name": "monthlyAmount",
          "type": "uint256"
        },
        {
          "indexed": false,
          "internalType": "uint256",
          "name": "startedAt",
          "type": "uint256"
        }
      ],
      "name": "PensionStarted",
      "type": "event"
    },
    {
      "inputs": [],
      "name": "MONTH",
      "outputs": [
        {
          "internalType": "uint256",
          "name": "",
          "type": "uint256"
        }
      ],
      "stateMutability": "view",
      "type": "function"
    },
    {
      "inputs": [],
      "name": "MONTHS_IN_PENSION",
      "outputs": [
        {
          "internalType": "uint256",
          "name": "",
          "type": "uint256"
        }
      ],
      "stateMutability": "view",
      "type": "function"
    },
    {
      "inputs": [],
      "name": "RETIREMENT_AGE",
      "outputs": [
        {
          "internalType": "uint256",
          "name": "",
          "type": "uint256"
        }
      ],
      "stateMutability": "view",
      "type": "function"
    },
    {
      "inputs": [],
      "name": "chooseMonthlyPension",
      "outputs": [],
      "stateMutability": "nonpayable",
      "type": "function"
    },
    {
      "inputs": [],
      "name": "claimGPSGratuity",
      "outputs": [],
      "stateMutability": "nonpayable",
      "type": "function"
    },
    {
      "inputs": [],
      "name": "fund",
      "outputs": [
        {
          "internalType": "contract IPensionFund",
          "name": "",
          "type": "address"
        }
      ],
      "stateMutability": "view",
      "type": "function"
    },
    {
      "inputs": [
        {
          "internalType": "address",
          "name": "pensioner",
          "type": "address"
        }
      ],
      "name": "getPensionState",
      "outputs": [
        {
          "components": [
            {
              "internalType": "bool",
              "name": "started",
              "type": "bool"
            },
            {
              "internalType": "uint256",
              "name": "monthlyAmount",
              "type": "uint256"
            },
            {
              "internalType": "uint256",
              "name": "lastWithdrawal",
              "type": "uint256"
            },
            {
              "internalType": "uint256",
              "name": "startedAt",
              "type": "uint256"
            }
          ],
          "internalType": "struct PensionDisbursement.PensionState",
          "name": "",
          "type": "tuple"
        }
      ],
      "stateMutability": "view",
      "type": "function"
    },
    {
      "inputs": [
        {
          "internalType": "address",
          "name": "",
          "type": "address"
        }
      ],
      "name": "gpsGratuityClaimed",
      "outputs": [
        {
          "internalType": "bool",
          "name": "",
          "type": "bool"
        }
      ],
      "stateMutability": "view",
      "type": "function"
    },
    {
      "inputs": [
        {
          "internalType": "address",
          "name": "",
          "type": "address"
        }
      ],
      "name": "lumpSumWithdrawn",
      "outputs": [
        {
          "internalType": "bool",
          "name": "",
          "type": "bool"
        }
      ],
      "stateMutability": "view",
      "type": "function"
    },
    {
      "inputs": [
        {
          "internalType": "address",
          "name": "pensioner",
          "type": "address"
        }
      ],
      "name": "nomineeClaimGPSGratuity",
      "outputs": [],
      "stateMutability": "nonpayable",
      "type": "function"
    },
    {
      "inputs": [
        {
          "internalType": "address",
          "name": "pensioner",
          "type": "address"
        }
      ],
      "name": "nomineeMaxMonthsAllowed",
      "outputs": [
        {
          "internalType": "uint256",
          "name": "",
          "type": "uint256"
        }
      ],
      "stateMutability": "view",
      "type": "function"
    },
    {
      "inputs": [
        {
          "internalType": "address",
          "name": "",
          "type": "address"
        }
      ],
      "name": "nomineeMonthlyWithdrawCount",
      "outputs": [
        {
          "internalType": "uint256",
          "name": "",
          "type": "uint256"
        }
      ],
      "stateMutability": "view",
      "type": "function"
    },
    {
      "inputs": [
        {
          "internalType": "address",
          "name": "pensioner",
          "type": "address"
        }
      ],
      "name": "nomineeWithdrawFullPension",
      "outputs": [],
      "stateMutability": "nonpayable",
      "type": "function"
    },
    {
      "inputs": [
        {
          "internalType": "address",
          "name": "",
          "type": "address"
        }
      ],
      "name": "pensionMode",
      "outputs": [
        {
          "internalType": "enum PensionDisbursement.PensionMode",
          "name": "",
          "type": "uint8"
        }
      ],
      "stateMutability": "view",
      "type": "function"
    },
    {
      "inputs": [
        {
          "internalType": "address",
          "name": "",
          "type": "address"
        }
      ],
      "name": "pensions",
      "outputs": [
        {
          "internalType": "bool",
          "name": "started",
          "type": "bool"
        },
        {
          "internalType": "uint256",
          "name": "monthlyAmount",
          "type": "uint256"
        },
        {
          "internalType": "uint256",
          "name": "lastWithdrawal",
          "type": "uint256"
        },
        {
          "internalType": "uint256",
          "name": "startedAt",
          "type": "uint256"
        }
      ],
      "stateMutability": "view",
      "type": "function"
    },
    {
      "inputs": [],
      "name": "registry",
      "outputs": [
        {
          "internalType": "contract PensionRegistry",
          "name": "",
          "type": "address"
        }
      ],
      "stateMutability": "view",
      "type": "function"
    },
    {
      "inputs": [],
      "name": "startPension",
      "outputs": [],
      "stateMutability": "nonpayable",
      "type": "function"
    },
    {
      "inputs": [],
      "name": "withdrawFullPension",
      "outputs": [],
      "stateMutability": "nonpayable",
      "type": "function"
    },
    {
      "inputs": [],
      "name": "withdrawMonthlyPension",
      "outputs": [],
      "stateMutability": "nonpayable",
      "type": "function"
    },
    {
      "inputs": [
        {
          "internalType": "address",
          "name": "pensioner",
          "type": "address"
        }
      ],
      "name": "withdrawMonthlyPensionAsNominee",
      "outputs": [],
      "stateMutability": "nonpayable",
      "type": "function"
    }
  ],
  "bytecode": "0x60803461010f57601f61339638819003918201601f19168301916001600160401b0383118484101761011457808492604094855283398101031261010f57610052602061004b8361012a565b920161012a565b6001600160a01b039091169081156100d7576001600160a01b03169081156100a35760018060a01b0319600054161760005560018060a01b03196001541617600155604051613257908161013f8239f35b60405162461bcd60e51b815260206004820152600c60248201526b125b9d985b1a5908199d5b9960a21b6044820152606490fd5b60405162461bcd60e51b815260206004820152601060248201526f496e76616c696420726567697374727960801b6044820152606490fd5b600080fd5b634e487b7160e01b600052604160045260246000fd5b51906001600160a01b038216820361010f5756fe608080604052600436101561001357600080fd5b600090813560e01c9081630236777f14611dbd575080630271fd5314611c4b5780636e245fa914611a63578063753b185814611a215780637b103999146119fa5780638275ec20146119bd5780638ab97e621461197b578063988f89851461195f578063a50c51e1146115a4578063a55410c1146112b2578063a5cf9a5d14611279578063af912bf514610f38578063b60d428814610f0f578063b77888311461088c578063bc9ebbff14610827578063be055bff1461077f578063c2ea068a14610763578063d5999a5c14610745578063f2b5d489146106f85763f5c60908146100fd57600080fd5b346106f557806003193601126106f5578054604051637ea7d02d60e11b81523360048201526001600160a01b0390911690602081602481855afa9081156103f8576101549160ff9185916106c6575b5016156120a8565b604051637af75e2760e11b8152336004820152908282602481845afa9182156103f85783926106aa575b508151610195906001600160a01b03163314612555565b6101b860026101a08401516101a98161201d565b6101b28161201d565b1461294f565b6101c76102808301511561287d565b6101e1603c6101da610180850151612ebe565b101561298a565b338352600260205260ff604084205416610665576020820180516002811015610651576001036104975750506001546040516306694ce560e31b81523360048201526001600160a01b0390911691602082602481865afa91821561048c578492610457575b506040019061025e82516102598161201d565b6130d8565b1161040357602060249260405193848092633f69ef5d60e11b82523360048301525afa9182156103f85783926103bd575b506102bc826102b66064936102a760f0961515612a0b565b516102b18161201d565b61315a565b90612d53565b04048015610384575b6040516102d18161203d565b600181526003602082018381526040830185815260608401914283523387526002602052604087209451151560ff801987541691161785555160018501555160028401555191015533825260036020526040822060ff19815416905533825260046020526040822060ff19815416905533825260066020528160408120556040519081524260208201527f806fdf87e44c8cf01b2070ad0a47daf5f1a332b4fe377d4cb5fd2b711df4f65360403392a280f35b60405162461bcd60e51b815260206004820152601160248201527014195b9cda5bdb881d1bdbc81cdb585b1b607a1b6044820152606490fd5b91506020823d6020116103f0575b816103d86020938361206e565b810103126103eb579051906102bc61028f565b600080fd5b3d91506103cb565b6040513d85823e3d90fd5b60405162461bcd60e51b815260206004820152602660248201527f4d696e696d756d206d6f6e74686c79207061796d656e7473206e6f7420636f6d6044820152651c1b195d195960d21b6064820152608490fd5b9091506020813d602011610484575b816104736020938361206e565b810103126103eb5751906040610246565b3d9150610466565b6040513d86823e3d90fd5b9091505160028110156105d95761061a578160249160405192838092637af75e2760e11b82523360048301525afa90811561060f5782916105ed575b50602081015160028110156105d9576104ec90156125d7565b6104fc6101008201511515612617565b61050a6101408201516131e2565b90811561057c57606491610120610522920151612d53565b04801561053757610532906131b8565b6102c5565b60405162461bcd60e51b815260206004820152601c60248201527f43616c63756c617465642070656e73696f6e20746f6f20736d616c6c000000006044820152606490fd5b60405162461bcd60e51b815260206004820152602f60248201527f496e73756666696369656e74207365727669636520746f207175616c6966792060448201526e3337b91023a829903832b739b4b7b760891b6064820152608490fd5b634e487b7160e01b83526021600452602483fd5b61060991503d8084833e610601818361206e565b8101906121b9565b386104d3565b6040513d84823e3d90fd5b60405162461bcd60e51b815260206004820152600f60248201526e496e76616c69642070726f6772616d60881b6044820152606490fd5b634e487b7160e01b85526021600452602485fd5b60405162461bcd60e51b815260206004820152601760248201527f50656e73696f6e20616c726561647920737461727465640000000000000000006044820152606490fd5b6106bf9192503d8085833e610601818361206e565b903861017e565b6106e8915060203d6020116106ee575b6106e0818361206e565b81019061208f565b3861014c565b503d6106d6565b80fd5b50346106f55760203660031901126106f5576004356001600160a01b038116908190036107415760408260ff9260209452600384522054166040519061073d8161201d565b8152f35b5080fd5b50346106f557806003193601126106f557602060405162278d008152f35b50346106f557806003193601126106f5576020604051603c8152f35b50346106f55760203660031901126106f5576004356001600160a01b038116908190036107415781604091608093606084516107ba8161203d565b8281528260208201528286820152015281526002602052206040516107de8161203d565b60ff825416151591828252600181015460208301908152606060036002840154936040860194855201549301928352604051938452516020840152516040830152516060820152f35b50346106f55760203660031901126106f5576004356001600160a01b0381169081900361074157816040916080935260026020522060ff8154169060018101549060036002820154910154916040519315158452602084015260408301526060820152f35b50346106f55760203660031901126106f5576004356001600160a01b038116808203610c36578254604051637ea7d02d60e11b8152600481018390526001600160a01b039091169290602081602481875afa908115610e63576108fa9160ff9187916106c6575016156120a8565b6109058215156120e9565b604051637af75e2760e11b815260048101839052928484602481845afa938415610e63578594610ef3575b5061095460026101a08601516109458161201d565b61094e8161201d565b14612592565b610964610280850151151561265b565b610220840180516001600160a01b031615610eae576109b1906109a060026102e08801516109918161201d565b61099a8161201d565b146126a0565b516001600160a01b03163314612726565b8460405191634e60874960e11b8352846004840152602083602481845afa92831561060f578293610e6e575b506109e9602493612769565b60405192838092637af75e2760e11b82528760048301525afa908115610e6357610a2091610260918791610e49575b500151612f71565b610a31610a2b612ace565b82613011565b908115610e36575b8115610e23575b610a4b610a2b612b39565b8015610e12575b8015610e01575b610a6a610a64612ba3565b83613011565b918215610dee575b8215610dd3575b508215610dcb575b508115610dc3575b5015610d605781845260026020526040842090610aa960ff83541661283b565b8285526003602052610acd600160ff604088205416610ac78161201d565b14612a4a565b8285526004602052610ae660ff60408720541615612903565b6002820190815480610d29575b50610afd90612c0f565b9384610cc5575b6020914290550180516002811015610cb157600103610c3a5750600180549082015485916001600160a01b0316803b15610c36576040516302f2b89d60e11b8152336004820152602481019290925282908290604490829084905af1801561060f57610c1d575b50505b81845260066020526040842080549060018201809211610c0957556001015460408051918252426020830152339183917f78ebd970e4ff4e695c370dbdc4ebc51cff4cab563fd3bc944a2e4af638199e6891a3808352600660205260408320549160405192835260208301524260408301527f5cacd9b461737a4cabb4808aa49e3b7b9d798ef957f1d92a59835a6d80be6d0860603393a380f35b634e487b7160e01b86526011600452602486fd5b81610c279161206e565b610c32578338610b6b565b8380fd5b8280fd5b5160028110156106515761061a57600180549082015485916001600160a01b0316803b15610c3657604051632931bd2f60e01b8152336004820152602481019290925282908290604490829084905af1801561060f57610c9c575b5050610b6e565b81610ca69161206e565b610c32578338610c95565b634e487b7160e01b86526021600452602486fd5b838652600660205284604087205410610b045760405162461bcd60e51b815260206004820152602360248201527f4e6f6d696e65652066616d696c792070656e73696f6e20706572696f6420656e60448201526219195960ea1b6064820152608490fd5b62278d008101809111610d4c5790610d46610afd92421015612a96565b90610af3565b634e487b7160e01b87526011600452602487fd5b60405162461bcd60e51b815260206004820152603560248201527f4d6f6e74686c79206e6f6d696e65652070656e73696f6e206e6f7420616c6c6f6044820152743bb2b2103337b9103a3434b9903932b630ba34b7b760591b6064820152608490fd5b905038610a89565b915038610a81565b610de7919250610de1612beb565b90613011565b9038610a79565b9150610dfb610a64612bc7565b91610a72565b50610e0d610a2b612b7d565b610a59565b50610e1e610a2b612b5c565b610a52565b9050610e30610a2b612b15565b90610a40565b9050610e43610a2b612af0565b90610a39565b610e5d91503d8089833e610601818361206e565b38610a18565b6040513d87823e3d90fd5b92506020833d602011610ea6575b81610e896020938361206e565b81010312610741576109e9610e9f6024946121ac565b93506109dd565b3d9150610e7c565b60405162461bcd60e51b815260206004820152601760248201527f4e6f6d696e65652077616c6c65742072657175697265640000000000000000006044820152606490fd5b610f089194503d8087833e610601818361206e565b9238610930565b50346106f557806003193601126106f5576001546040516001600160a01b039091168152602090f35b50346106f557806003193601126106f5578054604051637ea7d02d60e11b81523360048201526001600160a01b0390911690602081602481855afa9081156103f857610f8f9160ff9185916106c6575016156120a8565b3382526002602052610fa760ff60408420541661283b565b604051633eb20a9360e21b8152336004820152908290602083602481845afa92831561060f578293611239575b50610fe16024931561287d565b338252600360205261100360ff604084205416610ffd8161201d565b156128c1565b338252600460205261101c60ff604084205416156129cb565b604051637af75e2760e11b815233600482015292839182905afa801561060f57602091839161121f575b500151600281101561120b57600019016111c657600154604051633f69ef5d60e11b815233600482015290602090829060249082906001600160a01b03165afa90811561060f578291611194575b506110a0811515612a0b565b338252600360205260408220600260ff19825416179055338252600460205260408220600160ff198254161790558160018060a01b0360015416803b156107415760405163ccf24a8560e01b815233600482018190526024820152604481018490529082908290606490829084905af1801561060f5761117f575b50506040519081524260208201527fb58733d0275c12d051215511702fe81fc496a07aa08341c51b312cffd58898f460403392a2604051600281527fcaea7cc0f0ba7852e8d8eea4ef173f21d3d5e246c523c88ab5e3cb634b4c65e760203392a280f35b816111899161206e565b61074157813861111b565b90506020813d6020116111be575b816111af6020938361206e565b810103126103eb575138611094565b3d91506111a2565b60405162461bcd60e51b815260206004820152601e60248201527f4f6e6c79205052535320616c6c6f77732066756c6c20776974686472617700006044820152606490fd5b634e487b7160e01b82526021600452602482fd5b61123391503d8085833e610601818361206e565b38611046565b92506020833d602011611271575b816112546020938361206e565b8101031261074157610fe161126a6024946121ac565b9350610fd4565b3d9150611247565b50346106f55760203660031901126106f557600435906001600160a01b03821682036106f55760206112aa83612c0f565b604051908152f35b50346106f557806003193601126106f5578054604051637ea7d02d60e11b81523360048201526001600160a01b0390911690602081602481855afa9081156103f8576113099160ff9185916106c6575016156120a8565b338252600260205260246020604084209261132760ff85541661283b565b604051633eb20a9360e21b815233600482015292839182905afa80156103f8578390611569575b61135991501561287d565b3382526003602052611377600160ff604085205416610ac78161201d565b338252600460205261139060ff60408420541615612903565b60028101805480611536575b504290558154604051637af75e2760e11b8152336004820152908390829060249082906001600160a01b03165afa80156103f857602091849161151c575b5001805160028110156115085760010361148e5750600180549082015483916001600160a01b0316803b15610c36576040516302f2b89d60e11b8152336004820152602481019290925282908290604490829084905af1801561060f57611479575b50506001905b01546040519081524260208201527f28f610a30f13dcc2d1a2ac6cfb62f2b406d2f6317cea97e930e786f874c4ccf360403392a280f35b816114839161206e565b61074157813861143c565b5160028110156105d95761061a57600180549082015483916001600160a01b0316803b15610c3657604051632931bd2f60e01b8152336004820152602481019290925282908290604490829084905af1801561060f576114f3575b5050600190611442565b816114fd9161206e565b6107415781386114e9565b634e487b7160e01b84526021600452602484fd5b61153091503d8086833e610601818361206e565b386113da565b62278d0081018091116115555761154f90421015612a96565b3861139c565b634e487b7160e01b84526011600452602484fd5b506020813d60201161159c575b816115836020938361206e565b81010312610c3657611597611359916121ac565b61134e565b3d9150611576565b50346106f55760203660031901126106f5576004356001600160a01b03811690818103610c36578254604051637ea7d02d60e11b8152600481018490526001600160a01b0390911690602081602481855afa908115610e63576116129160ff9187916106c6575016156120a8565b61161d8315156120e9565b604051637af75e2760e11b815260048101849052918483602481855afa928315610e63578593611943575b5060208301516002811015610cb157600019016118f257602085926116bb6102208661168060026101a060249a01516109458161201d565b611690610280820151151561265b565b6116a460026102e08301516109918161201d565b0180516109a0906001600160a01b031615156126e1565b60405194858092634e60874960e11b82528860048301525afa92831561060f5782936118b2575b506116ee602493612769565b838252600260205261170660ff60408420541661283b565b838252600360205261172260ff604084205416610ffd8161201d565b838252600460205261173b60ff604084205416156129cb565b600154604051633f69ef5d60e11b8152600481018690529360209185919082906001600160a01b03165afa92831561060f57829361187b575b50611780831515612a0b565b838252600360205260408220600260ff19825416179055838252600460205260408220600160ff1982541617905560018060a01b0360015416803b15610c365760405163ccf24a8560e01b81526001600160a01b039290921660048301523360248301526044820184905282908290606490829084905af1801561060f57611866575b5050604051908152426020820152817f953d45cd00a244c925ca425c354f4e23f8a3067a6086cb7315910e70f5ac07ae60403393a37fcaea7cc0f0ba7852e8d8eea4ef173f21d3d5e246c523c88ab5e3cb634b4c65e7602060405160028152a280f35b816118709161206e565b610c36578238611803565b915091506020813d6020116118aa575b816118986020938361206e565b810103126103eb578390519138611774565b3d915061188b565b92506020833d6020116118ea575b816118cd6020938361206e565b81010312610741576116ee6118e36024946121ac565b93506116e2565b3d91506118c0565b60405162461bcd60e51b815260206004820152602360248201527f4f6e6c792050525353206e6f6d696e65652063616e20776974686472617720666044820152621d5b1b60ea1b6064820152608490fd5b6119589193503d8087833e610601818361206e565b9138611648565b50346106f557806003193601126106f557602060405160f08152f35b50346106f55760203660031901126106f5576004356001600160a01b038116908190036107415760408260ff9260209452600484522054166040519015158152f35b50346106f55760203660031901126106f5576004356001600160a01b03811690819003610741578160409160209352600683522054604051908152f35b50346106f557806003193601126106f557546040516001600160a01b039091168152602090f35b50346106f55760203660031901126106f5576004356001600160a01b038116908190036107415760408260ff9260209452600584522054166040519015158152f35b50346106f557806003193601126106f5578054604051637ea7d02d60e11b81523360048201529082906001600160a01b0316602083602481845afa801561060f5760ff611abb9160249585916106c6575016156120a8565b604051637af75e2760e11b815233600482015292839182905afa90811561060f578291611c31575b508051611afa906001600160a01b03163314612555565b611b0e60026101a08301516101a98161201d565b611b1d6102808201511561287d565b602081015160028110156105d9576101da610180611b7193611b41603c94156125d7565b611b516101008201511515612617565b3386526005602052611b6a60ff604088205416156127ac565b0151612ebe565b611b7a33612d7c565b611b858115156127f8565b338252600560205260408220805460ff191660019081179091555482906001600160a01b0316803b1561074157604051632931bd2f60e01b8152336004820152602481018490529082908290604490829084905af1801561060f57611c1c575b50506040519081524260208201527f87102ef903d944e18f17c793be559d5539cc0e9bafe4cbd371a2af22df1569f260403392a280f35b81611c269161206e565b610741578138611be5565b611c4591503d8084833e610601818361206e565b38611ae3565b50346106f557806003193601126106f5578054604051637ea7d02d60e11b81523360048201526001600160a01b0390911690602081602481855afa9182156103f857611ca660ff6024946020948791611da6575016156120a8565b33845260028252611cbd60ff60408620541661283b565b604051633eb20a9360e21b815233600482015292839182905afa801561060f578290611d6b575b611cef91501561287d565b3381526003602052611d0b60ff604083205416610ffd8161201d565b3381526004602052611d2460ff60408320541615612903565b338152600360205260408120600160ff19825416179055604051600181527fcaea7cc0f0ba7852e8d8eea4ef173f21d3d5e246c523c88ab5e3cb634b4c65e760203392a280f35b506020813d602011611d9e575b81611d856020938361206e565b8101031261074157611d99611cef916121ac565b611ce4565b3d9150611d78565b6106e89150853d87116106ee576106e0818361206e565b905034610741576020366003190112610741576004356001600160a01b03811691828203610c32578354637ea7d02d60e11b8252600482018490526001600160a01b031690602081602481855afa908115610e6357611e279160ff9187916106c6575016156120a8565b611e328315156120e9565b604051637af75e2760e11b8152600481018490528481602481855afa908115610e63578591612003575b508051611e73906001600160a01b03168514612555565b611e8760026101a08301516109458161201d565b60208101516002811015610cb15791611ebc610220602093611eac60249796156125d7565b6116806101008201511515612617565b60405193848092634e60874960e11b82528760048301525afa91821561048c578492611fc2575b50611ef0611f0e92612769565b8284526005602052611f0960ff604086205416156127ac565b612d7c565b90611f1a8215156127f8565b808352600560205260408320805460ff19166001908117909155546001600160a01b0316803b15610c3257604051632931bd2f60e01b8152336004820152602481018490529084908290604490829084905af1801561048c57611fae575b506040519182524260208301527f02ca08dde08f2edbe195b5ec116bf1d19b4be5439dc0325492a260809a15922d60403393a380f35b83611fbb9194929461206e565b9138611f78565b91506020823d602011611ffb575b81611fdd6020938361206e565b81010312610c3257611ef0611ff4611f0e936121ac565b9250611ee3565b3d9150611fd0565b61201791503d8087833e610601818361206e565b38611e5c565b6004111561202757565b634e487b7160e01b600052602160045260246000fd5b608081019081106001600160401b0382111761205857604052565b634e487b7160e01b600052604160045260246000fd5b90601f801991011681019081106001600160401b0382111761205857604052565b908160209103126103eb575160ff811681036103eb5790565b156120af57565b60405162461bcd60e51b81526020600482015260126024820152714163636f756e74206e6f742061637469766560701b6044820152606490fd5b156120f057565b60405162461bcd60e51b815260206004820152601160248201527024b73b30b634b2103832b739b4b7b732b960791b6044820152606490fd5b51906001600160a01b03821682036103eb57565b81601f820112156103eb578051906001600160401b0382116120585760405192612171601f8401601f19166020018561206e565b828452602083830101116103eb5760005b82811061219757505060206000918301015290565b80602080928401015182828701015201612182565b519081151582036103eb57565b6020818303126103eb578051906001600160401b0382116103eb57016104c0818303126103eb57604051916104c083018381106001600160401b038211176120585760405261220782612129565b8352602082015160028110156103eb576020840152604082015160048110156103eb576040840152606082015160608401526080820151608084015260a082015160a084015260c08201516001600160401b0381116103eb578161226c91840161213d565b60c084015260e08201516001600160401b0381116103eb578161229091840161213d565b60e08401526122a261010083016121ac565b6101008401526101208201516101208401526101408201516101408401526101608201516001600160401b0381116103eb57816122e091840161213d565b6101608401526101808201516101808401526101a082015160048110156103eb576101a08401526101c08201516101c08401526101e08201516101e08401526102008201516001600160401b0381116103eb578161233f91840161213d565b6102008401526123526102208301612129565b6102208401526102408201516001600160401b0381116103eb578161237891840161213d565b6102408401526102608201516001600160401b0381116103eb578161239e91840161213d565b6102608401526123b161028083016121ac565b6102808401526102a08201516102a08401526102c08201516001600160401b0381116103eb57816123e391840161213d565b6102c08401526102e082015160048110156103eb576102e08401526103008201516103008401526103208201516103208401526103408201516001600160401b0381116103eb578161243691840161213d565b6103408401526103608201516001600160401b0381116103eb578161245c91840161213d565b61036084015261038082015160048110156103eb576103808401526103a08201516103a08401526103c08201516103c08401526103e08201516001600160401b0381116103eb57816124af91840161213d565b6103e08401526104008201516001600160401b0381116103eb57816124d591840161213d565b6104008401526104208201516001600160401b0381116103eb57816124fb91840161213d565b61042084015261044082015160038110156103eb576104408401526104608201516104608401526104808201516104808401526104a08201516001600160401b0381116103eb5761254c920161213d565b6104a082015290565b1561255c57565b60405162461bcd60e51b815260206004820152600e60248201526d139bdd081c9959da5cdd195c995960921b6044820152606490fd5b1561259957565b60405162461bcd60e51b81526020600482015260166024820152752737ba1030b8383937bb32b2103832b739b4b7b732b960511b6044820152606490fd5b156125de57565b60405162461bcd60e51b81526020600482015260116024820152702737ba1023a829903832b739b4b7b732b960791b6044820152606490fd5b1561261e57565b60405162461bcd60e51b815260206004820152601560248201527411d414c819185d18481b9bdd081d995c9a599a5959605a1b6044820152606490fd5b1561266257565b60405162461bcd60e51b815260206004820152601660248201527514195b9cda5bdb995c881b9bdd08191958d9585cd95960521b6044820152606490fd5b156126a757565b60405162461bcd60e51b81526020600482015260126024820152711119585d1a081b9bdd081d995c9a599a595960721b6044820152606490fd5b156126e857565b60405162461bcd60e51b81526020600482015260166024820152754e6f6d696e65652077616c6c6574206d697373696e6760501b6044820152606490fd5b1561272d57565b60405162461bcd60e51b815260206004820152601460248201527313db9b1e481b9bdb5a5b995948185b1b1bddd95960621b6044820152606490fd5b1561277057565b60405162461bcd60e51b8152602060048201526014602482015273139bdb5a5b9959481b9bdd08185c1c1c9bdd995960621b6044820152606490fd5b156127b357565b60405162461bcd60e51b815260206004820152601860248201527f477261747569747920616c726561647920636c61696d656400000000000000006044820152606490fd5b156127ff57565b60405162461bcd60e51b8152602060048201526014602482015273477261747569747920616d6f756e74207a65726f60601b6044820152606490fd5b1561284257565b60405162461bcd60e51b815260206004820152601360248201527214195b9cda5bdb881b9bdd081cdd185c9d1959606a1b6044820152606490fd5b1561288457565b60405162461bcd60e51b815260206004820152601560248201527414195b9cda5bdb995c881a5cc8191958d9585cd959605a1b6044820152606490fd5b156128c857565b60405162461bcd60e51b815260206004820152601360248201527226b7b2329030b63932b0b23c9031b437b9b2b760691b6044820152606490fd5b1561290a57565b60405162461bcd60e51b815260206004820152601a60248201527f4c756d702073756d20616c72656164792077697468647261776e0000000000006044820152606490fd5b1561295657565b60405162461bcd60e51b815260206004820152600c60248201526b139bdd08185c1c1c9bdd995960a21b6044820152606490fd5b1561299157565b60405162461bcd60e51b81526020600482015260126024820152714e6f74207265746972656d656e742061676560701b6044820152606490fd5b156129d257565b60405162461bcd60e51b815260206004820152601160248201527020b63932b0b23c903bb4ba34323930bbb760791b6044820152606490fd5b15612a1257565b60405162461bcd60e51b815260206004820152601060248201526f4e6f20636f6e747269627574696f6e7360801b6044820152606490fd5b15612a5157565b60405162461bcd60e51b815260206004820152601760248201527f4d6f6e74686c79206d6f6465206e6f742063686f73656e0000000000000000006044820152606490fd5b15612a9d57565b60405162461bcd60e51b8152602060048201526009602482015268546f6f206561726c7960b81b6044820152606490fd5b60405190612add60408361206e565b60048252637769666560e01b6020830152565b60405190612aff60408361206e565b60078252661a1d5cd8985b9960ca1b6020830152565b60405190612b2460408361206e565b600682526573706f75736560d01b6020830152565b60405190612b4860408361206e565b600582526418da1a5b1960da1b6020830152565b60405190612b6b60408361206e565b600382526239b7b760e91b6020830152565b60405190612b8c60408361206e565b60088252673230bab3b43a32b960c11b6020830152565b60405190612bb260408361206e565b60068252653330ba3432b960d11b6020830152565b60405190612bd660408361206e565b600682526536b7ba3432b960d11b6020830152565b60405190612bfa60408361206e565b60068252651c185c995b9d60d21b6020830152565b60008054604051637af75e2760e11b81526001600160a01b0393841660048201529283916024918391165afa908115612d4757612c599161026091600091612d3257500151612f71565b612c64610a2b612ace565b8015612d21575b8015612d10575b612d0a57612c81610a2b612b39565b8015612cf9575b8015612ce8575b612ce257612c9e610a2b612ba3565b908115612ccf575b8115612cbc575b50612cb757600090565b603c90565b612cc99150610de1612beb565b38612cad565b9050612cdc610a2b612bc7565b90612ca6565b50607890565b50612cf4610a2b612b7d565b612c8f565b50612d05610a2b612b5c565b612c88565b50600090565b50612d1c610a2b612b15565b612c72565b50612d2d610a2b612af0565b612c6b565b610e5d91503d806000833e610601818361206e565b6040513d6000823e3d90fd5b81810292918115918404141715612d6657565b634e487b7160e01b600052601160045260246000fd5b60008054604051637af75e2760e11b81526001600160a01b0393841660048201529283916024918391165afa908115612d4757600091612e98575b506020810151600281101561202757612dd090156125d7565b612de06101008201511515612617565b61014081015160018110612e4857610120612dfc920151612d53565b8015612e0e57612e0b906131b8565b90565b60405162461bcd60e51b815260206004820152601260248201527111dc985d1d5a5d1e481d1bdbc81cdb585b1b60721b6044820152606490fd5b60405162461bcd60e51b815260206004820152602260248201527f5365727669636520796561727320746f6f206c6f7720666f7220677261747569604482015261747960f01b6064820152608490fd5b612eab913d8091833e610601818361206e565b38612db7565b91908203918211612d6657565b630121eb2581101580612f3c575b15612f025761271090046301e1338042046107b20190816107b211612d6657808210612efb57612e0b91612eb1565b5050600090565b60405162461bcd60e51b8152602060048201526012602482015271125b9d985b1a59081113d088199bdc9b585d60721b6044820152606490fd5b50630140740f811115612ecc565b908151811015612f5b570160200190565b634e487b7160e01b600052603260045260246000fd5b9060005b825181101561300e57604160f81b6001600160f81b0319612f968386612f4a565b5116101580612fec575b612fad575b600101612f75565b6020612fb98285612f4a565b5160f81c019060ff8211612d665760019160f81b6001600160f81b03191660001a612fe48286612f4a565b539050612fa5565b50602d60f91b6001600160f81b03196130058386612f4a565b51161115612fa0565b50565b9091825180159081156130cd575b506130c5576000925b6130358351825190612eb1565b84116130bc5760019260005b82518110156130b257808601808711612d66576001600160f81b0319906130689084612f4a565b51166001600160f81b031961307d8386612f4a565b51160361308c57600101613041565b5092509260005b6130a9576000198114612d665760010192613028565b50915050600190565b5092939093613093565b50915050600090565b915050600090565b90508251103861301f565b602060018060a01b0360005416916024604051809481936344f9dcb560e11b83526131028161201d565b60048301525afa908115612d4757600091613128575b5080156131225790565b50600c90565b906020823d602011613152575b816131426020938361206e565b810103126106f557505138613118565b3d9150613135565b6131638161201d565b80156131b2576131728161201d565b600181146131ac576131838161201d565b600281146131a6576003906131978161201d565b146131a157606490565b608790565b50607d90565b50607390565b50606990565b670de0b6b3a7640000810290808204670de0b6b3a76400001490151715612d6657620493e0900490565b601981101561321b57601481101561321557600f81101561320f57600a111561320a57600090565b602090565b50603090565b50604090565b5060509056fea2646970667358221220f16d1aaf388fbd193ff41a30821f9ba82798ea598d8ff47c3a135a94fdf7761964736f6c634300081c0033",
  "linkReferences": {},
  "deployedLinkReferences": {}
}