{
  "_format": "hh-sol-artifact-1",
  "contractName": "PensionFund",
  "sourceName": "contracts/PensionFund.sol",
  "abi": [
    {
      "inputs": [
        {
          "internalType": "address",
          "name": "registryAddress",
          "type": "address"
        }
      ],
      "stateMutability": "nonpayable",
      "type": "constructor"
    },
    {
      "anonymous": false,
      "inputs": [
        {
          "indexed": true,
          "internalType": "address",
          "name": "pensioner",
          "type": "address"
        },
        {
          "indexed": false,
          "internalType": "uint256",
          "name": "amount",
          "type": "uint256"
        },
        {
          "indexed": false,
          "internalType": "uint256",
          "name": "timestamp",
          "type": "uint256"
        }
      ],
      "name": "ContributionMade",
      "type": "event"
    },
    {
      "anonymous": false,
      "inputs": [
        {
          "indexed": true,
          "internalType": "address",
          "name": "admin",
          "type": "address"
        },
        {
          "indexed": true,
          "internalType": "address",
          "name": "pensioner",
          "type": "address"
        },
        {
          "indexed": false,
          "internalType": "uint256",
          "name": "amount",
          "type": "uint256"
        },
        {
          "indexed": false,
          "internalType": "uint256",
          "name": "timestamp",
          "type": "uint256"
        }
      ],
      "name": "GPSFundAllocated",
      "type": "event"
    },
    {
      "anonymous": false,
      "inputs": [
        {
          "indexed": true,
          "internalType": "address",
          "name": "admin",
          "type": "address"
        },
        {
          "indexed": true,
          "internalType": "address",
          "name": "to",
          "type": "address"
        },
        {
          "indexed": false,
          "internalType": "uint256",
          "name": "amount",
          "type": "uint256"
        },
        {
          "indexed": false,
          "internalType": "uint256",
          "name": "timestamp",
          "type": "uint256"
        }
      ],
      "name": "GPSFundWithdrawn",
      "type": "event"
    },
    {
      "anonymous": false,
      "inputs": [
        {
          "indexed": true,
          "internalType": "address",
          "name": "disbursement",
          "type": "address"
        }
      ],
      "name": "PensionDisbursementSet",
      "type": "event"
    },
    {
      "anonymous": false,
      "inputs": [
        {
          "indexed": true,
          "internalType": "address",
          "name": "receiver",
          "type": "address"
        },
        {
          "indexed": false,
          "internalType": "uint256",
          "name": "amount",
          "type": "uint256"
        },
        {
          "indexed": false,
          "internalType": "uint256",
          "name": "timestamp",
          "type": "uint256"
        }
      ],
      "name": "PensionPaid",
      "type": "event"
    },
    {
      "inputs": [],
      "name": "MONTH",
      "outputs": [
        {
          "internalType": "uint256",
          "name": "",
          "type": "uint256"
        }
      ],
      "stateMutability": "view",
      "type": "function"
    },
    {
      "inputs": [
        {
          "internalType": "address",
          "name": "pensioner",
          "type": "address"
        }
      ],
      "name": "allocateGPSFund",
      "outputs": [],
      "stateMutability": "payable",
      "type": "function"
    },
    {
      "inputs": [],
      "name": "contribute",
      "outputs": [],
      "stateMutability": "payable",
      "type": "function"
    },
    {
      "inputs": [],
      "name": "contributeMonthly",
      "outputs": [],
      "stateMutability": "payable",
      "type": "function"
    },
    {
      "inputs": [
        {
          "internalType": "address",
          "name": "pensioner",
          "type": "address"
        }
      ],
      "name": "getContributionHistory",
      "outputs": [
        {
          "internalType": "uint256[]",
          "name": "",
          "type": "uint256[]"
        }
      ],
      "stateMutability": "view",
      "type": "function"
    },
    {
      "inputs": [],
      "name": "getMyBalances",
      "outputs": [
        {
          "internalType": "uint256",
          "name": "prssBalance",
          "type": "uint256"
        },
        {
          "internalType": "uint256",
          "name": "gpsBalance",
          "type": "uint256"
        }
      ],
      "stateMutability": "view",
      "type": "function"
    },
    {
      "inputs": [],
      "name": "getMyContributionHistory",
      "outputs": [
        {
          "internalType": "uint256[]",
          "name": "",
          "type": "uint256[]"
        }
      ],
      "stateMutability": "view",
      "type": "function"
    },
    {
      "inputs": [
        {
          "internalType": "address",
          "name": "",
          "type": "address"
        }
      ],
      "name": "gpsAllocatedFund",
      "outputs": [
        {
          "internalType": "uint256",
          "name": "",
          "type": "uint256"
        }
      ],
      "stateMutability": "view",
      "type": "function"
    },
    {
      "inputs": [
        {
          "internalType": "address",
          "name": "",
          "type": "address"
        }
      ],
      "name": "lastContributionAt",
      "outputs": [
        {
          "internalType": "uint256",
          "name": "",
          "type": "uint256"
        }
      ],
      "stateMutability": "view",
      "type": "function"
    },
    {
      "inputs": [
        {
          "internalType": "address",
          "name": "",
          "type": "address"
        }
      ],
      "name": "monthlyPaymentsCount",
      "outputs": [
        {
          "internalType": "uint256",
          "name": "",
          "type": "uint256"
        }
      ],
      "stateMutability": "view",
      "type": "function"
    },
    {
      "inputs": [],
      "name": "pensionDisbursement",
      "outputs": [
        {
          "internalType": "address",
          "name": "",
          "type": "address"
        }
      ],
      "stateMutability": "view",
      "type": "function"
    },
    {
      "inputs": [],
      "name": "registry",
      "outputs": [
        {
          "internalType": "contract PensionRegistry",
          "name": "",
          "type": "address"
        }
      ],
      "stateMutability": "view",
      "type": "function"
    },
    {
      "inputs": [
        {
          "internalType": "address",
          "name": "pensioner",
          "type": "address"
        },
        {
          "internalType": "address payable",
          "name": "receiver",
          "type": "address"
        },
        {
          "internalType": "uint256",
          "name": "amount",
          "type": "uint256"
        }
      ],
      "name": "releasePRSSLumpSum",
      "outputs": [],
      "stateMutability": "nonpayable",
      "type": "function"
    },
    {
      "inputs": [
        {
          "internalType": "address payable",
          "name": "receiver",
          "type": "address"
        },
        {
          "internalType": "uint256",
          "name": "amount",
          "type": "uint256"
        }
      ],
      "name": "releaseTo",
      "outputs": [],
      "stateMutability": "nonpayable",
      "type": "function"
    },
    {
      "inputs": [
        {
          "internalType": "address payable",
          "name": "pensioner",
          "type": "address"
        },
        {
          "internalType": "uint256",
          "name": "amount",
          "type": "uint256"
        }
      ],
      "name": "releaseToGPSPensioner",
      "outputs": [],
      "stateMutability": "nonpayable",
      "type": "function"
    },
    {
      "inputs": [
        {
          "internalType": "address payable",
          "name": "pensioner",
          "type": "address"
        },
        {
          "internalType": "uint256",
          "name": "amount",
          "type": "uint256"
        }
      ],
      "name": "releaseToPRSSPensioner",
      "outputs": [],
      "stateMutability": "nonpayable",
      "type": "function"
    },
    {
      "inputs": [
        {
          "internalType": "address",
          "name": "_disbursement",
          "type": "address"
        }
      ],
      "name": "setPensionDisbursement",
      "outputs": [],
      "stateMutability": "nonpayable",
      "type": "function"
    },
    {
      "inputs": [
        {
          "internalType": "address",
          "name": "",
          "type": "address"
        }
      ],
      "name": "totalContributions",
      "outputs": [
        {
          "internalType": "uint256",
          "name": "",
          "type": "uint256"
        }
      ],
      "stateMutability": "view",
      "type": "function"
    },
    {
      "inputs": [
        {
          "internalType": "address payable",
          "name": "to",
          "type": "address"
        },
        {
          "internalType": "uint256",
          "name": "amount",
          "type": "uint256"
        }
      ],
      "name": "withdrawGPSUnallocated",
      "outputs": [],
      "stateMutability": "nonpayable",
      "type": "function"
    },
    {
      "stateMutability": "payable",
      "type": "receive"
    }
  ],
  "bytecode": "0x60803460ad57601f611e8038819003918201601f19168301916001600160401b0383118484101760b25780849260209460405283398101031260ad57516001600160a01b0381169081900360ad578015607557600080546001600160a01b031916919091179055604051611db790816100c98239f35b60405162461bcd60e51b815260206004820152601060248201526f496e76616c696420726567697374727960801b6044820152606490fd5b600080fd5b634e487b7160e01b600052604160045260246000fdfe608080604052600436101561001d575b50361561001b57600080fd5b005b60003560e01c90816304c35bd6146113df5750806305e5713a146112d3578063277f9e401461125c5780632931bd2f1461112d578063334a6728146110f35780634e06bad1146110285780636f1440c214610fff5780637b10399914610fd65780637ed3deba14610f9c5780638e6f275d14610f255780639b7d3b6014610db6578063a98048df14610d7b578063b18801c214610a8a578063c1f9bc301461097c578063ccf24a8514610821578063d5999a5c14610803578063d7bb99ba1461058c578063d9167086146105525763e24f85c6146100fb573861000f565b60003660031901126104e757600054604051637ea7d02d60e11b81523360048201526001600160a01b0390911690602081602481855afa90811561049e576101509160ff91600091610523575b50161561154f565b61015b3415156117d9565b6040516330ccebb560e01b8152336004820152602081602481855afa90811561049e576000916104f4575b50600481101561046557600261019c911461182b565b604051633eb20a9360e21b8152336004820152602081602481855afa90811561049e576000916104aa575b506024916101d760009215611870565b604051637af75e2760e11b815233600482015292839182905afa90811561049e5760009161047b575b508051610217906001600160a01b03163314611cc4565b60208101519060028210156104655760016000920361040f576060018051156103ca5751340361036f57338152600460205260408120548015908115610343575b50156102fe57338152600260205260408120610275348254611d10565b9055338152600360205261028c3460408320611d1d565b3381526004602052426040822055338152600560205260408120805490600182018092116102ea57556040513481524260208201527f5dc1fe5ab986a852c4eda8e8bb94247d13307065c593fb83f1a09be27367938260403392a280f35b634e487b7160e01b83526011600452602483fd5b60405162461bcd60e51b815260206004820152601760248201527f416c726561647920706169642074686973206d6f6e74680000000000000000006044820152606490fd5b905062278d00810180911161035b5742101538610258565b634e487b7160e01b82526011600452602482fd5b60405162461bcd60e51b815260206004820152602d60248201527f436f6e747269627574696f6e206d757374206d6174636820736368656d65206d60448201526c1bdb9d1a1b1e48185b5bdd5b9d609a1b6064820152608490fd5b60405162461bcd60e51b815260206004820152601c60248201527f4d6f6e74686c7920636f6e747269627574696f6e206e6f7420736574000000006044820152606490fd5b60405162461bcd60e51b815260206004820152602860248201527f4750532070656e73696f6e6572732063616e6e6f7420636f6e74726962757465604482015267206d6f6e74686c7960c01b6064820152608490fd5b634e487b7160e01b600052602160045260246000fd5b61049891503d806000833e61049081836114ff565b810190611928565b38610200565b6040513d6000823e3d90fd5b90506020813d6020116104ec575b816104c5602093836114ff565b810103126104e7576024916101d76104de60009361178b565b925050916101c7565b600080fd5b3d91506104b8565b610516915060203d60201161051c575b61050e81836114ff565b810190611813565b38610186565b503d610504565b610545915060203d60201161054b575b61053d81836114ff565b810190611536565b38610148565b503d610533565b346104e75760203660031901126104e7576001600160a01b03610573611415565b1660005260046020526020604060002054604051908152f35b60003660031901126104e757600054604051637ea7d02d60e11b81523360048201526001600160a01b0390911690602081602481855afa90811561049e576105e09160ff916000916107e45750161561154f565b6105eb3415156117d9565b6040516330ccebb560e01b8152336004820152602081602481855afa90811561049e576000916107c5575b50600481101561046557600261062c911461182b565b604051633eb20a9360e21b8152336004820152602081602481855afa90811561049e57600091610780575b5060249161066760009215611870565b604051637af75e2760e11b815233600482015292839182905afa801561049e57602091600091610765575b5080516106a9906001600160a01b03163314611cc4565b0151600281101561046557600160009103610721573381526002602052604081206106d5348254611d10565b905533815260036020526106ec3460408320611d1d565b6040513481524260208201527f5dc1fe5ab986a852c4eda8e8bb94247d13307065c593fb83f1a09be27367938260403392a280f35b606460405162461bcd60e51b815260206004820152602060248201527f4750532070656e73696f6e6572732063616e6e6f7420636f6e747269627574656044820152fd5b61077a91503d806000833e61049081836114ff565b82610692565b90506020813d6020116107bd575b8161079b602093836114ff565b810103126104e7576024916106676107b460009361178b565b92505091610657565b3d915061078e565b6107de915060203d60201161051c5761050e81836114ff565b82610616565b6107fd915060203d60201161054b5761053d81836114ff565b84610148565b346104e75760003660031901126104e757602060405162278d008152f35b346104e75760603660031901126104e75761083a611415565b6024356001600160a01b03811691908290036104e75760015460249060443590610879906001600160a01b0316610872811515611465565b33146114a8565b600054604051637ea7d02d60e11b81526001600160a01b039485166004820181905294909360209285928391165afa92831561049e576108d660ff600080516020611d628339815191529560409560009161095d5750161561154f565b6108e1811515611590565b6108ec85151561174c565b6108f78215156115d0565b806000526002602052610910828460002054101561160d565b61091c82471015611659565b60005260026020528160002061093382825461169c565b905561094f600080808085895af16109496116da565b5061170a565b8151908152426020820152a2005b610976915060203d60201161054b5761053d81836114ff565b88610148565b346104e75760403660031901126104e757610995611415565b600054604051630935e01b60e21b8152336004820152602480359392602091839182906001600160a01b03165afa801561049e57600090610a4f575b6109db9150611798565b6001600160a01b0316906109f082151561174c565b6109fb8115156115d0565b610a0781471015611659565b610a1b600080808085875af16109496116da565b6040519081524260208201527f0c0aa62965c8d9240b5bb3449b00c40d5175eadc54086208af11dae12513e2c260403392a3005b506020813d602011610a82575b81610a69602093836114ff565b810103126104e757610a7d6109db9161178b565b6109d1565b3d9150610a5c565b60203660031901126104e757610a9e611415565b600054604051630935e01b60e21b81523360048201526001600160a01b0390911690602081602481855afa801561049e57600090610d40575b610ae19150611798565b604051637ea7d02d60e11b81526001600160a01b039092166004830181905291602081602481855afa90811561049e57610b279160ff91600091610d215750161561154f565b610b32821515611590565b610b3d3415156117d9565b6040516330ccebb560e01b815260048101839052602081602481855afa90811561049e57600091610d02575b506004811015610465576002610b7f911461182b565b604051633eb20a9360e21b815260048101839052602081602481855afa90811561049e57600091610cbd575b50602491610bbb60009215611870565b60405192838092637af75e2760e11b82528660048301525afa801561049e57602091600091610ca2575b508051610bfc906001600160a01b03168414611cc4565b015190600282101561046557600091610c5d57808252600660205260408220610c26348254611d10565b90556040513481524260208201527fcb07b0f7a3a98a523b74a4d46c567c882e51d132d3cdbae6f184437616f247b860403392a380f35b60405162461bcd60e51b815260206004820152601a60248201527f4f6e6c79204750532070656e73696f6e657220616c6c6f7765640000000000006044820152606490fd5b610cb791503d806000833e61049081836114ff565b83610be5565b90506020813d602011610cfa575b81610cd8602093836114ff565b810103126104e757602491610bbb610cf160009361178b565b92505091610bab565b3d9150610ccb565b610d1b915060203d60201161051c5761050e81836114ff565b83610b69565b610d3a915060203d60201161054b5761053d81836114ff565b85610148565b506020813d602011610d73575b81610d5a602093836114ff565b810103126104e757610d6e610ae19161178b565b610ad7565b3d9150610d4d565b346104e75760003660031901126104e75733600052600260205260408060002054336000526006602052816000205482519182526020820152f35b346104e75760203660031901126104e757610dcf611415565b600054604051630935e01b60e21b815233600482015290602090829060249082906001600160a01b03165afa801561049e57600090610eea575b610e139150611798565b6001600160a01b03168015610eae576001546001600160a01b038116610e69576001600160a01b03191681176001557f1e6fa50de66f6bacb24833b86b69002f60bd0840cf6d759137fcb300543ff726600080a2005b60405162461bcd60e51b815260206004820152601860248201527f44697362757273656d656e7420616c72656164792073657400000000000000006044820152606490fd5b60405162461bcd60e51b8152602060048201526014602482015273125b9d985b1a5908191a5cd89d5c9cd95b595b9d60621b6044820152606490fd5b506020813d602011610f1d575b81610f04602093836114ff565b810103126104e757610f18610e139161178b565b610e09565b3d9150610ef7565b346104e75760003660031901126104e757336000526003602052604060002060405190816020825491828152019160005260206000209060005b818110610f8657610f8285610f76818703826114ff565b6040519182918261142b565b0390f35b8254845260209093019260019283019201610f5f565b346104e75760203660031901126104e7576001600160a01b03610fbd611415565b1660005260026020526020604060002054604051908152f35b346104e75760003660031901126104e7576000546040516001600160a01b039091168152602090f35b346104e75760003660031901126104e7576001546040516001600160a01b039091168152602090f35b346104e75760403660031901126104e757611041611415565b6001546024359190611061906001600160a01b0316610872811515611465565b6001600160a01b03169061107682151561174c565b6110818115156115d0565b8047106110ae5760408161094f6000808080600080516020611d6283398151915297895af16109496116da565b60405162461bcd60e51b815260206004820152601960248201527f496e73756666696369656e742066756e642062616c616e6365000000000000006044820152606490fd5b346104e75760203660031901126104e7576001600160a01b03611114611415565b1660005260056020526020604060002054604051908152f35b346104e75760403660031901126104e757611146611415565b6001546024359190611166906001600160a01b0316610872811515611465565b600054604051637ea7d02d60e11b81526001600160a01b03928316600482018190529392909160209183916024918391165afa90811561049e576111b69160ff91600091610d215750161561154f565b6111c1821515611590565b6111cc8115156115d0565b8160005260066020528060406000205410611217576040816111ff600080516020611d6283398151915293471015611659565b8360005260066020528160002061093382825461169c565b60405162461bcd60e51b815260206004820152601f60248201527f496e73756666696369656e742047505320616c6c6f63617465642066756e64006044820152606490fd5b346104e75760203660031901126104e7576001600160a01b0361127d611415565b166000526003602052604060002060405190816020825491828152019160005260206000209060005b8181106112bd57610f8285610f76818703826114ff565b82548452602090930192600192830192016112a6565b346104e75760403660031901126104e7576112ec611415565b600154602435919061130c906001600160a01b0316610872811515611465565b600054604051637ea7d02d60e11b81526001600160a01b03928316600482018190529392909160209183916024918391165afa91821561049e5761136d60ff600080516020611d62833981519152946040946000916113c05750161561154f565b611378841515611590565b6113838115156115d0565b83600052600260205261139c818360002054101561160d565b6113a881471015611659565b8360005260026020528160002061093382825461169c565b6113d9915060203d60201161054b5761053d81836114ff565b87610148565b346104e75760203660031901126104e7576020906001600160a01b03611403611415565b16600052600682526040600020548152f35b600435906001600160a01b03821682036104e757565b602060408183019282815284518094520192019060005b81811061144f5750505090565b8251845260209384019390920191600101611442565b1561146c57565b60405162461bcd60e51b8152602060048201526014602482015273111a5cd89d5c9cd95b595b9d081b9bdd081cd95d60621b6044820152606490fd5b156114af57565b60405162461bcd60e51b815260206004820152602260248201527f4f6e6c792064697362757273656d656e7420636f6e747261637420616c6c6f77604482015261195960f21b6064820152608490fd5b90601f801991011681019081106001600160401b0382111761152057604052565b634e487b7160e01b600052604160045260246000fd5b908160209103126104e7575160ff811681036104e75790565b1561155657565b60405162461bcd60e51b81526020600482015260126024820152714163636f756e74206e6f742061637469766560701b6044820152606490fd5b1561159757565b60405162461bcd60e51b815260206004820152601160248201527024b73b30b634b2103832b739b4b7b732b960791b6044820152606490fd5b156115d757565b60405162461bcd60e51b815260206004820152600e60248201526d125b9d985b1a5908185b5bdd5b9d60921b6044820152606490fd5b1561161457565b60405162461bcd60e51b815260206004820152601960248201527f496e73756666696369656e7420505253532062616c616e6365000000000000006044820152606490fd5b1561166057565b60405162461bcd60e51b8152602060048201526014602482015273436f6e74726163742062616c616e6365206c6f7760601b6044820152606490fd5b919082039182116116a957565b634e487b7160e01b600052601160045260246000fd5b6001600160401b03811161152057601f01601f191660200190565b3d15611705573d906116eb826116bf565b916116f960405193846114ff565b82523d6000602084013e565b606090565b1561171157565b60405162461bcd60e51b8152602060048201526013602482015272115512081d1c985b9cd9995c8819985a5b1959606a1b6044820152606490fd5b1561175357565b60405162461bcd60e51b815260206004820152601060248201526f24b73b30b634b2103932b1b2b4bb32b960811b6044820152606490fd5b519081151582036104e757565b1561179f57565b60405162461bcd60e51b815260206004820152601260248201527113db9b1e4818591b5a5b88185b1b1bddd95960721b6044820152606490fd5b156117e057565b60405162461bcd60e51b815260206004820152600b60248201526a139bc8115512081cd95b9d60aa1b6044820152606490fd5b908160209103126104e7575160048110156104e75790565b1561183257565b60405162461bcd60e51b815260206004820152601660248201527514195b9cda5bdb995c881b9bdd08185c1c1c9bdd995960521b6044820152606490fd5b1561187757565b60405162461bcd60e51b815260206004820152601560248201527414195b9cda5bdb995c881a5cc8191958d9585cd959605a1b6044820152606490fd5b51906001600160a01b03821682036104e757565b81601f820112156104e7578051906118df826116bf565b926118ed60405194856114ff565b828452602083830101116104e75760005b82811061191357505060206000918301015290565b806020809284010151828287010152016118fe565b6020818303126104e7578051906001600160401b0382116104e757016104c0818303126104e757604051916104c083018381106001600160401b0382111761152057604052611976826118b4565b8352602082015160028110156104e7576020840152604082015160048110156104e7576040840152606082015160608401526080820151608084015260a082015160a084015260c08201516001600160401b0381116104e757816119db9184016118c8565b60c084015260e08201516001600160401b0381116104e757816119ff9184016118c8565b60e0840152611a11610100830161178b565b6101008401526101208201516101208401526101408201516101408401526101608201516001600160401b0381116104e75781611a4f9184016118c8565b6101608401526101808201516101808401526101a082015160048110156104e7576101a08401526101c08201516101c08401526101e08201516101e08401526102008201516001600160401b0381116104e75781611aae9184016118c8565b610200840152611ac161022083016118b4565b6102208401526102408201516001600160401b0381116104e75781611ae79184016118c8565b6102408401526102608201516001600160401b0381116104e75781611b0d9184016118c8565b610260840152611b20610280830161178b565b6102808401526102a08201516102a08401526102c08201516001600160401b0381116104e75781611b529184016118c8565b6102c08401526102e082015160048110156104e7576102e08401526103008201516103008401526103208201516103208401526103408201516001600160401b0381116104e75781611ba59184016118c8565b6103408401526103608201516001600160401b0381116104e75781611bcb9184016118c8565b61036084015261038082015160048110156104e7576103808401526103a08201516103a08401526103c08201516103c08401526103e08201516001600160401b0381116104e75781611c1e9184016118c8565b6103e08401526104008201516001600160401b0381116104e75781611c449184016118c8565b6104008401526104208201516001600160401b0381116104e75781611c6a9184016118c8565b61042084015261044082015160038110156104e7576104408401526104608201516104608401526104808201516104808401526104a08201516001600160401b0381116104e757611cbb92016118c8565b6104a082015290565b15611ccb57565b60405162461bcd60e51b815260206004820152601860248201527f4e6f7420726567697374657265642070656e73696f6e657200000000000000006044820152606490fd5b919082018092116116a957565b805490680100000000000000008210156115205760018201808255821015611d4b5760005260206000200155565b634e487b7160e01b600052603260045260246000fdfe83b5ee741a5b124c6df84e57105091fd9d5d62bf03fa204a123f5034009f5530a26469706673582212207796b3c0e60eb62fe9b171cc931bd62b54d1e5a23a64e9df85050f682718af9e64736f6c634300081c0033",
  "linkReferences": {},
  "deployedLinkReferences": {}
}