{
  "_format": "hh3-artifact-1",
  "contractName": "PensionRegistry",
  "sourceName": "contracts/PensionRegistry.sol",
  "abi": [
    {
      "inputs": [],
      "stateMutability": "nonpayable",
      "type": "constructor"
    },
    {
      "anonymous": false,
      "inputs": [
        {
          "indexed": false,
          "internalType": "address",
          "name": "pensioner",
          "type": "address"
        },
        {
          "indexed": false,
          "internalType": "string",
          "name": "ipfsHash",
          "type": "string"
        },
        {
          "indexed": false,
          "internalType": "string",
          "name": "docType",
          "type": "string"
        }
      ],
      "name": "DocumentSubmitted",
      "type": "event"
    },
    {
      "anonymous": false,
      "inputs": [
        {
          "indexed": false,
          "internalType": "address",
          "name": "pensioner",
          "type": "address"
        }
      ],
      "name": "PensionerRegistered",
      "type": "event"
    },
    {
      "inputs": [
        {
          "internalType": "address",
          "name": "_wallet",
          "type": "address"
        }
      ],
      "name": "addAdmin",
      "outputs": [],
      "stateMutability": "nonpayable",
      "type": "function"
    },
    {
      "inputs": [
        {
          "internalType": "address",
          "name": "",
          "type": "address"
        },
        {
          "internalType": "uint256",
          "name": "",
          "type": "uint256"
        }
      ],
      "name": "documents",
      "outputs": [
        {
          "internalType": "string",
          "name": "ipfsHash",
          "type": "string"
        },
        {
          "internalType": "string",
          "name": "docType",
          "type": "string"
        },
        {
          "internalType": "enum PensionRegistry.DocumentStatus",
          "name": "status",
          "type": "uint8"
        }
      ],
      "stateMutability": "view",
      "type": "function"
    },
    {
      "inputs": [
        {
          "internalType": "address",
          "name": "_pensioner",
          "type": "address"
        }
      ],
      "name": "getDocuments",
      "outputs": [
        {
          "components": [
            {
              "internalType": "string",
              "name": "ipfsHash",
              "type": "string"
            },
            {
              "internalType": "string",
              "name": "docType",
              "type": "string"
            },
            {
              "internalType": "enum PensionRegistry.DocumentStatus",
              "name": "status",
              "type": "uint8"
            }
          ],
          "internalType": "struct PensionRegistry.Document[]",
          "name": "",
          "type": "tuple[]"
        }
      ],
      "stateMutability": "view",
      "type": "function"
    },
    {
      "inputs": [
        {
          "internalType": "address",
          "name": "_wallet",
          "type": "address"
        }
      ],
      "name": "getPensioner",
      "outputs": [
        {
          "internalType": "string",
          "name": "",
          "type": "string"
        },
        {
          "internalType": "uint256",
          "name": "",
          "type": "uint256"
        }
      ],
      "stateMutability": "view",
      "type": "function"
    },
    {
      "inputs": [],
      "name": "owner",
      "outputs": [
        {
          "internalType": "address",
          "name": "",
          "type": "address"
        }
      ],
      "stateMutability": "view",
      "type": "function"
    },
    {
      "inputs": [
        {
          "internalType": "address",
          "name": "",
          "type": "address"
        }
      ],
      "name": "pensioners",
      "outputs": [
        {
          "internalType": "string",
          "name": "name",
          "type": "string"
        },
        {
          "internalType": "uint256",
          "name": "dob",
          "type": "uint256"
        },
        {
          "internalType": "bool",
          "name": "exists",
          "type": "bool"
        }
      ],
      "stateMutability": "view",
      "type": "function"
    },
    {
      "inputs": [
        {
          "internalType": "address",
          "name": "_wallet",
          "type": "address"
        },
        {
          "internalType": "string",
          "name": "_name",
          "type": "string"
        },
        {
          "internalType": "uint256",
          "name": "_dob",
          "type": "uint256"
        }
      ],
      "name": "registerPensioner",
      "outputs": [],
      "stateMutability": "nonpayable",
      "type": "function"
    },
    {
      "inputs": [
        {
          "internalType": "address",
          "name": "",
          "type": "address"
        }
      ],
      "name": "roles",
      "outputs": [
        {
          "internalType": "enum PensionRegistry.Role",
          "name": "",
          "type": "uint8"
        }
      ],
      "stateMutability": "view",
      "type": "function"
    },
    {
      "inputs": [
        {
          "internalType": "string",
          "name": "_ipfsHash",
          "type": "string"
        },
        {
          "internalType": "string",
          "name": "_docType",
          "type": "string"
        }
      ],
      "name": "submitDocument",
      "outputs": [],
      "stateMutability": "nonpayable",
      "type": "function"
    }
  ],
  "bytecode": "0x6080604052348015600e575f5ffd5b5060038054336001600160a01b031990911681179091555f908152602081905260409020805460ff19166002179055610f5c8061004a5f395ff3fe608060405234801561000f575f5ffd5b5060043610610090575f3560e01c80636339884411610063578063633988441461010757806370480275146101295780638da5cb5b1461013c5780639937464214610167578063f5eebc4e14610196575f5ffd5b80631613dc701461009457806327f50a2d146100a957806329477ad4146100d2578063308f5db7146100e5575b5f5ffd5b6100a76100a2366004610b13565b6101b7565b005b6100bc6100b7366004610b67565b610339565b6040516100c99190610bdd565b60405180910390f35b6100a76100e0366004610c7b565b6104fd565b6100f86100f3366004610b67565b6106b7565b6040516100c993929190610ce0565b61011a610115366004610d09565b610762565b6040516100c993929190610d31565b6100a7610137366004610b67565b6108b1565b60035461014f906001600160a01b031681565b6040516001600160a01b0390911681526020016100c9565b610189610175366004610b67565b5f6020819052908152604090205460ff1681565b6040516100c99190610d6d565b6101a96101a4366004610b67565b610921565b6040516100c9929190610d87565b6002335f9081526020819052604090205460ff1660028111156101dc576101dc610bb5565b1461021a5760405162461bcd60e51b81526020600482015260096024820152682737ba1030b236b4b760b91b60448201526064015b60405180910390fd5b6001600160a01b0383165f9081526001602052604090206002015460ff161561027a5760405162461bcd60e51b8152602060048201526012602482015271105b1c9958591e481c9959da5cdd195c995960721b6044820152606401610211565b60408051606081018252838152602080820184905260018284018190526001600160a01b0387165f908152915291909120815181906102b99082610e2c565b506020828101516001838101919091556040938401516002909301805460ff199081169415159490941790556001600160a01b0387165f818152808452859020805490941690911790925591519081527f688ba240095bc1b6db59a69ee1ff039ee00266344688a24d37a225d726dda1d6910160405180910390a1505050565b6001600160a01b0381165f908152600260209081526040808320805482518185028101850190935280835260609492939192909184015b828210156104f2578382905f5260205f2090600302016040518060600160405290815f820180546103a090610da8565b80601f01602080910402602001604051908101604052809291908181526020018280546103cc90610da8565b80156104175780601f106103ee57610100808354040283529160200191610417565b820191905f5260205f20905b8154815290600101906020018083116103fa57829003601f168201915b5050505050815260200160018201805461043090610da8565b80601f016020809104026020016040519081016040528092919081815260200182805461045c90610da8565b80156104a75780601f1061047e576101008083540402835291602001916104a7565b820191905f5260205f20905b81548152906001019060200180831161048a57829003601f168201915b5050509183525050600282015460209091019060ff1660038111156104ce576104ce610bb5565b60038111156104df576104df610bb5565b8152505081526020019060010190610370565b505050509050919050565b6001335f9081526020819052604090205460ff16600281111561052257610522610bb5565b1461055f5760405162461bcd60e51b815260206004820152600d60248201526c2737ba103832b739b4b7b732b960991b6044820152606401610211565b5f8251116105a35760405162461bcd60e51b8152602060048201526011602482015270092dcecc2d8d2c84092a08ca640d0c2e6d607b1b6044820152606401610211565b5f8151116105eb5760405162461bcd60e51b8152602060048201526015602482015274496e76616c696420646f63756d656e74207479706560581b6044820152606401610211565b335f90815260026020908152604080832081516060810183528681528084018690526001928101839052815492830182559084529190922081519192600302019081906106389082610e2c565b506020820151600182019061064d9082610e2c565b50604082015160028201805460ff1916600183600381111561067157610671610bb5565b021790555050507f4897cd635168a00687f7326b525c03309f8b79d89beadb125fcd252afdb95efa3383836040516106ab93929190610ee7565b60405180910390a15050565b60016020525f90815260409020805481906106d190610da8565b80601f01602080910402602001604051908101604052809291908181526020018280546106fd90610da8565b80156107485780601f1061071f57610100808354040283529160200191610748565b820191905f5260205f20905b81548152906001019060200180831161072b57829003601f168201915b50505050600183015460029093015491929160ff16905083565b6002602052815f5260405f20818154811061077b575f80fd5b905f5260205f2090600302015f9150915050805f01805461079b90610da8565b80601f01602080910402602001604051908101604052809291908181526020018280546107c790610da8565b80156108125780601f106107e957610100808354040283529160200191610812565b820191905f5260205f20905b8154815290600101906020018083116107f557829003601f168201915b50505050509080600101805461082790610da8565b80601f016020809104026020016040519081016040528092919081815260200182805461085390610da8565b801561089e5780601f106108755761010080835404028352916020019161089e565b820191905f5260205f20905b81548152906001019060200180831161088157829003601f168201915b5050506002909301549192505060ff1683565b6003546001600160a01b031633146108fe5760405162461bcd60e51b815260206004820152601060248201526f2737ba1039bcb9ba32b69037bbb732b960811b6044820152606401610211565b6001600160a01b03165f908152602081905260409020805460ff19166002179055565b6001600160a01b0381165f908152600160205260408120600201546060919060ff1661097b5760405162461bcd60e51b8152602060048201526009602482015268139bdd08199bdd5b9960ba1b6044820152606401610211565b6001600160a01b0383165f908152600160205260408082208151606081019092528054829082906109ab90610da8565b80601f01602080910402602001604051908101604052809291908181526020018280546109d790610da8565b8015610a225780601f106109f957610100808354040283529160200191610a22565b820191905f5260205f20905b815481529060010190602001808311610a0557829003601f168201915b5050509183525050600182015460208083019190915260029092015460ff1615156040909101528151910151909590945092505050565b80356001600160a01b0381168114610a6f575f5ffd5b919050565b634e487b7160e01b5f52604160045260245ffd5b5f82601f830112610a97575f5ffd5b813567ffffffffffffffff811115610ab157610ab1610a74565b604051601f8201601f19908116603f0116810167ffffffffffffffff81118282101715610ae057610ae0610a74565b604052818152838201602001851015610af7575f5ffd5b816020850160208301375f918101602001919091529392505050565b5f5f5f60608486031215610b25575f5ffd5b610b2e84610a59565b9250602084013567ffffffffffffffff811115610b49575f5ffd5b610b5586828701610a88565b93969395505050506040919091013590565b5f60208284031215610b77575f5ffd5b610b8082610a59565b9392505050565b5f81518084528060208401602086015e5f602082860101526020601f19601f83011685010191505092915050565b634e487b7160e01b5f52602160045260245ffd5b60048110610bd957610bd9610bb5565b9052565b5f602082016020835280845180835260408501915060408160051b8601019250602086015f5b82811015610c6f57603f198786030184528151805160608752610c296060880182610b87565b905060208201518782036020890152610c428282610b87565b91505060408201519150610c596040880183610bc9565b9550506020938401939190910190600101610c03565b50929695505050505050565b5f5f60408385031215610c8c575f5ffd5b823567ffffffffffffffff811115610ca2575f5ffd5b610cae85828601610a88565b925050602083013567ffffffffffffffff811115610cca575f5ffd5b610cd685828601610a88565b9150509250929050565b606081525f610cf26060830186610b87565b602083019490945250901515604090910152919050565b5f5f60408385031215610d1a575f5ffd5b610d2383610a59565b946020939093013593505050565b606081525f610d436060830186610b87565b8281036020840152610d558186610b87565b915050610d656040830184610bc9565b949350505050565b6020810160038310610d8157610d81610bb5565b91905290565b604081525f610d996040830185610b87565b90508260208301529392505050565b600181811c90821680610dbc57607f821691505b602082108103610dda57634e487b7160e01b5f52602260045260245ffd5b50919050565b601f821115610e2757805f5260205f20601f840160051c81016020851015610e055750805b601f840160051c820191505b81811015610e24575f8155600101610e11565b50505b505050565b815167ffffffffffffffff811115610e4657610e46610a74565b610e5a81610e548454610da8565b84610de0565b6020601f821160018114610e8c575f8315610e755750848201515b5f19600385901b1c1916600184901b178455610e24565b5f84815260208120601f198516915b82811015610ebb5787850151825560209485019460019092019101610e9b565b5084821015610ed857868401515f19600387901b60f8161c191681555b50505050600190811b01905550565b6001600160a01b03841681526060602082018190525f90610f0a90830185610b87565b8281036040840152610f1c8185610b87565b969550505050505056fea2646970667358221220ecbfe14545c884980632dacbda6e7c795deac3b23485a43fac8f31f2f0fef64564736f6c634300081c0033",
  "linkReferences": {},
  "deployedLinkReferences": {},
  "immutableReferences": {},
  "inputSourceName": "project/contracts/PensionRegistry.sol",
  "buildInfoId": "solc-0_8_28-dd7cd076e4bba97642f697a30410c9f13bc590b9"
}