{
  "_format": "hh3-artifact-1",
  "contractName": "PensionDocuments",
  "sourceName": "contracts/PensionDocuments.sol",
  "abi": [
    {
      "inputs": [
        {
          "internalType": "address",
          "name": "_registryAddress",
          "type": "address"
        }
      ],
      "stateMutability": "nonpayable",
      "type": "constructor"
    },
    {
      "anonymous": false,
      "inputs": [
        {
          "indexed": true,
          "internalType": "address",
          "name": "pensioner",
          "type": "address"
        },
        {
          "indexed": false,
          "internalType": "uint256",
          "name": "index",
          "type": "uint256"
        }
      ],
      "name": "DocumentApproved",
      "type": "event"
    },
    {
      "anonymous": false,
      "inputs": [
        {
          "indexed": true,
          "internalType": "address",
          "name": "pensioner",
          "type": "address"
        },
        {
          "indexed": false,
          "internalType": "uint256",
          "name": "index",
          "type": "uint256"
        },
        {
          "indexed": false,
          "internalType": "string",
          "name": "reason",
          "type": "string"
        }
      ],
      "name": "DocumentRejected",
      "type": "event"
    },
    {
      "anonymous": false,
      "inputs": [
        {
          "indexed": true,
          "internalType": "address",
          "name": "pensioner",
          "type": "address"
        },
        {
          "indexed": false,
          "internalType": "string",
          "name": "ipfsHash",
          "type": "string"
        }
      ],
      "name": "DocumentSubmitted",
      "type": "event"
    },
    {
      "inputs": [
        {
          "internalType": "address",
          "name": "pensioner",
          "type": "address"
        },
        {
          "internalType": "uint256",
          "name": "index",
          "type": "uint256"
        }
      ],
      "name": "approveDocument",
      "outputs": [],
      "stateMutability": "nonpayable",
      "type": "function"
    },
    {
      "inputs": [
        {
          "internalType": "address",
          "name": "",
          "type": "address"
        },
        {
          "internalType": "uint256",
          "name": "",
          "type": "uint256"
        }
      ],
      "name": "documents",
      "outputs": [
        {
          "internalType": "string",
          "name": "ipfsHash",
          "type": "string"
        },
        {
          "internalType": "enum PensionDocuments.DocumentStatus",
          "name": "status",
          "type": "uint8"
        },
        {
          "internalType": "string",
          "name": "rejectReason",
          "type": "string"
        }
      ],
      "stateMutability": "view",
      "type": "function"
    },
    {
      "inputs": [
        {
          "internalType": "address",
          "name": "pensioner",
          "type": "address"
        }
      ],
      "name": "getDocuments",
      "outputs": [
        {
          "components": [
            {
              "internalType": "string",
              "name": "ipfsHash",
              "type": "string"
            },
            {
              "internalType": "enum PensionDocuments.DocumentStatus",
              "name": "status",
              "type": "uint8"
            },
            {
              "internalType": "string",
              "name": "rejectReason",
              "type": "string"
            }
          ],
          "internalType": "struct PensionDocuments.Document[]",
          "name": "",
          "type": "tuple[]"
        }
      ],
      "stateMutability": "view",
      "type": "function"
    },
    {
      "inputs": [],
      "name": "registry",
      "outputs": [
        {
          "internalType": "contract IPensionRegistry",
          "name": "",
          "type": "address"
        }
      ],
      "stateMutability": "view",
      "type": "function"
    },
    {
      "inputs": [
        {
          "internalType": "address",
          "name": "pensioner",
          "type": "address"
        },
        {
          "internalType": "uint256",
          "name": "index",
          "type": "uint256"
        },
        {
          "internalType": "string",
          "name": "reason",
          "type": "string"
        }
      ],
      "name": "rejectDocument",
      "outputs": [],
      "stateMutability": "nonpayable",
      "type": "function"
    },
    {
      "inputs": [
        {
          "internalType": "string",
          "name": "_ipfsHash",
          "type": "string"
        }
      ],
      "name": "submitDocument",
      "outputs": [],
      "stateMutability": "nonpayable",
      "type": "function"
    }
  ],
  "bytecode": "0x6080604052348015600e575f5ffd5b50604051610f21380380610f21833981016040819052602b91604e565b5f80546001600160a01b0319166001600160a01b03929092169190911790556079565b5f60208284031215605d575f5ffd5b81516001600160a01b03811681146072575f5ffd5b9392505050565b610e9b806100865f395ff3fe608060405234801561000f575f5ffd5b5060043610610060575f3560e01c8063079fc8221461006457806327f50a2d146100795780632ad680fd146100a257806363398844146100b55780637b103999146100d757806393dc3f1a14610101575b5f5ffd5b610077610072366004610ab9565b610114565b005b61008c610087366004610b0c565b61033f565b6040516100999190610b8e565b60405180910390f35b6100776100b0366004610c2b565b610503565b6100c86100c3366004610c2b565b6106e0565b60405161009993929190610c53565b5f546100e9906001600160a01b031681565b6040516001600160a01b039091168152602001610099565b61007761010f366004610c8e565b610835565b5f54604051634c9ba32160e11b81523360048201526001600160a01b0390911690639937464290602401602060405180830381865afa158015610159573d5f5f3e3d5ffd5b505050506040513d601f19601f8201168201806040525081019061017d9190610cc8565b60ff166002146101c05760405162461bcd60e51b81526020600482015260096024820152682737ba1030b236b4b760b91b60448201526064015b60405180910390fd5b60016001600160a01b0384165f9081526001602052604090208054849081106101eb576101eb610ce8565b5f91825260209091206003918202016001015460ff169081111561021157610211610b5a565b1461024e5760405162461bcd60e51b815260206004820152600d60248201526c139bdd081cdd589b5a5d1d1959609a1b60448201526064016101b7565b6001600160a01b0383165f9081526001602052604090208054600391908490811061027b5761027b610ce8565b905f5260205f2090600302016001015f6101000a81548160ff021916908360038111156102aa576102aa610b5a565b02179055506001600160a01b0383165f9081526001602052604090208054829190849081106102db576102db610ce8565b905f5260205f20906003020160020190816102f69190610d80565b50826001600160a01b03167fea3690d1aa949c829d58e4b82f2d90370e2e2334a623f566c527fcda779b39b18383604051610332929190610e3b565b60405180910390a2505050565b6001600160a01b0381165f908152600160209081526040808320805482518185028101850190935280835260609492939192909184015b828210156104f8578382905f5260205f2090600302016040518060600160405290815f820180546103a690610cfc565b80601f01602080910402602001604051908101604052809291908181526020018280546103d290610cfc565b801561041d5780601f106103f45761010080835404028352916020019161041d565b820191905f5260205f20905b81548152906001019060200180831161040057829003601f168201915b5050509183525050600182015460209091019060ff16600381111561044457610444610b5a565b600381111561045557610455610b5a565b815260200160028201805461046990610cfc565b80601f016020809104026020016040519081016040528092919081815260200182805461049590610cfc565b80156104e05780601f106104b7576101008083540402835291602001916104e0565b820191905f5260205f20905b8154815290600101906020018083116104c357829003601f168201915b50505050508152505081526020019060010190610376565b505050509050919050565b5f54604051634c9ba32160e11b81523360048201526001600160a01b0390911690639937464290602401602060405180830381865afa158015610548573d5f5f3e3d5ffd5b505050506040513d601f19601f8201168201806040525081019061056c9190610cc8565b60ff166002146105aa5760405162461bcd60e51b81526020600482015260096024820152682737ba1030b236b4b760b91b60448201526064016101b7565b60016001600160a01b0383165f9081526001602052604090208054839081106105d5576105d5610ce8565b5f91825260209091206003918202016001015460ff16908111156105fb576105fb610b5a565b146106385760405162461bcd60e51b815260206004820152600d60248201526c139bdd081cdd589b5a5d1d1959609a1b60448201526064016101b7565b6001600160a01b0382165f9081526001602052604090208054600291908390811061066557610665610ce8565b905f5260205f2090600302016001015f6101000a81548160ff0219169083600381111561069457610694610b5a565b0217905550816001600160a01b03167f70894048a3824f9775f73ed273e7a91ca22d62b2d4ac51557e102040cc5a08db826040516106d491815260200190565b60405180910390a25050565b6001602052815f5260405f2081815481106106f9575f80fd5b905f5260205f2090600302015f9150915050805f01805461071990610cfc565b80601f016020809104026020016040519081016040528092919081815260200182805461074590610cfc565b80156107905780601f1061076757610100808354040283529160200191610790565b820191905f5260205f20905b81548152906001019060200180831161077357829003601f168201915b5050506001840154600285018054949560ff9092169491935091506107b490610cfc565b80601f01602080910402602001604051908101604052809291908181526020018280546107e090610cfc565b801561082b5780601f106108025761010080835404028352916020019161082b565b820191905f5260205f20905b81548152906001019060200180831161080e57829003601f168201915b5050505050905083565b5f54604051634c9ba32160e11b81523360048201526001600160a01b0390911690639937464290602401602060405180830381865afa15801561087a573d5f5f3e3d5ffd5b505050506040513d601f19601f8201168201806040525081019061089e9190610cc8565b60ff166001146108e05760405162461bcd60e51b815260206004820152600d60248201526c2737ba103832b739b4b7b732b960991b60448201526064016101b7565b5f8151116109245760405162461bcd60e51b8152602060048201526011602482015270092dcecc2d8d2c84092a08ca640d0c2e6d607b1b60448201526064016101b7565b335f90815260016020818152604080842081516060810183528681528084018590528251808501845286815292810192909252805493840181558452922082516003909202019081906109779082610d80565b50602082015160018083018054909160ff199091169083600381111561099f5761099f610b5a565b0217905550604082015160028201906109b89082610d80565b505050336001600160a01b03167ff2ba1c9bcd705b3a9bff9b7468dc4b5b83f20e7399561fb2c0e9d8ef6313cd37826040516109f49190610e53565b60405180910390a250565b80356001600160a01b0381168114610a15575f5ffd5b919050565b634e487b7160e01b5f52604160045260245ffd5b5f82601f830112610a3d575f5ffd5b813567ffffffffffffffff811115610a5757610a57610a1a565b604051601f8201601f19908116603f0116810167ffffffffffffffff81118282101715610a8657610a86610a1a565b604052818152838201602001851015610a9d575f5ffd5b816020850160208301375f918101602001919091529392505050565b5f5f5f60608486031215610acb575f5ffd5b610ad4846109ff565b925060208401359150604084013567ffffffffffffffff811115610af6575f5ffd5b610b0286828701610a2e565b9150509250925092565b5f60208284031215610b1c575f5ffd5b610b25826109ff565b9392505050565b5f81518084528060208401602086015e5f602082860101526020601f19601f83011685010191505092915050565b634e487b7160e01b5f52602160045260245ffd5b60048110610b8a57634e487b7160e01b5f52602160045260245ffd5b9052565b5f602082016020835280845180835260408501915060408160051b8601019250602086015f5b82811015610c1f57603f198786030184528151805160608752610bda6060880182610b2c565b90506020820151610bee6020890182610b6e565b50604082015191508681036040880152610c088183610b2c565b965050506020938401939190910190600101610bb4565b50929695505050505050565b5f5f60408385031215610c3c575f5ffd5b610c45836109ff565b946020939093013593505050565b606081525f610c656060830186610b2c565b610c726020840186610b6e565b8281036040840152610c848185610b2c565b9695505050505050565b5f60208284031215610c9e575f5ffd5b813567ffffffffffffffff811115610cb4575f5ffd5b610cc084828501610a2e565b949350505050565b5f60208284031215610cd8575f5ffd5b815160ff81168114610b25575f5ffd5b634e487b7160e01b5f52603260045260245ffd5b600181811c90821680610d1057607f821691505b602082108103610d2e57634e487b7160e01b5f52602260045260245ffd5b50919050565b601f821115610d7b57805f5260205f20601f840160051c81016020851015610d595750805b601f840160051c820191505b81811015610d78575f8155600101610d65565b50505b505050565b815167ffffffffffffffff811115610d9a57610d9a610a1a565b610dae81610da88454610cfc565b84610d34565b6020601f821160018114610de0575f8315610dc95750848201515b5f19600385901b1c1916600184901b178455610d78565b5f84815260208120601f198516915b82811015610e0f5787850151825560209485019460019092019101610def565b5084821015610e2c57868401515f19600387901b60f8161c191681555b50505050600190811b01905550565b828152604060208201525f610cc06040830184610b2c565b602081525f610b256020830184610b2c56fea26469706673582212200aed8833bfee5886ded595aa8fba98616d6b938e116e246ecfed9f3b63823a0864736f6c634300081c0033",
  "linkReferences": {},
  "deployedLinkReferences": {},
  "immutableReferences": {},
  "inputSourceName": "project/contracts/PensionDocuments.sol",
  "buildInfoId": "solc-0_8_28-50001bbcb40130cdbfd290bc398f5f9fbf0141f4"
}